{
  "_format": "hh-sol-artifact-1",
  "contractName": "AaveLeveragedSwapManager",
  "sourceName": "contracts/AaveLeveragedSwapManager.sol",
  "abi": [
    {
      "anonymous": false,
      "inputs": [
        {
          "indexed": true,
          "internalType": "address",
          "name": "targetToken",
          "type": "address"
        },
        {
          "indexed": false,
          "internalType": "address",
          "name": "user",
          "type": "address"
        },
        {
          "indexed": false,
          "internalType": "uint256",
          "name": "targetAmount",
          "type": "uint256"
        },
        {
          "indexed": false,
          "internalType": "uint256",
          "name": "borrowRateMode",
          "type": "uint256"
        },
        {
          "indexed": false,
          "internalType": "uint256",
          "name": "slippage",
          "type": "uint256"
        },
        {
          "indexed": false,
          "internalType": "uint256",
          "name": "targetAmountReturned",
          "type": "uint256"
        }
      ],
      "name": "Deleverage",
      "type": "event"
    },
    {
      "anonymous": false,
      "inputs": [
        {
          "indexed": true,
          "internalType": "address",
          "name": "targetToken",
          "type": "address"
        },
        {
          "indexed": true,
          "internalType": "address",
          "name": "pairToken",
          "type": "address"
        },
        {
          "indexed": false,
          "internalType": "address",
          "name": "user",
          "type": "address"
        },
        {
          "indexed": false,
          "internalType": "uint256",
          "name": "targetAmount",
          "type": "uint256"
        },
        {
          "indexed": false,
          "internalType": "uint256",
          "name": "borrowRateMode",
          "type": "uint256"
        },
        {
          "indexed": false,
          "internalType": "uint256",
          "name": "slippage",
          "type": "uint256"
        },
        {
          "indexed": false,
          "internalType": "uint256",
          "name": "pairAmountReturned",
          "type": "uint256"
        }
      ],
      "name": "Leverage",
      "type": "event"
    },
    {
      "stateMutability": "nonpayable",
      "type": "fallback"
    },
    {
      "inputs": [],
      "name": "FLASH_LOAN_FEE_RATE",
      "outputs": [
        {
          "internalType": "uint256",
          "name": "",
          "type": "uint256"
        }
      ],
      "stateMutability": "view",
      "type": "function"
    },
    {
      "inputs": [],
      "name": "PROTOCOL_DATA_PROVIDER_ID",
      "outputs": [
        {
          "internalType": "bytes32",
          "name": "",
          "type": "bytes32"
        }
      ],
      "stateMutability": "view",
      "type": "function"
    },
    {
      "inputs": [
        {
          "components": [
            {
              "internalType": "address",
              "name": "tokenAddress",
              "type": "address"
            },
            {
              "internalType": "bool",
              "name": "borrowable",
              "type": "bool"
            },
            {
              "internalType": "bool",
              "name": "canBeCollateral",
              "type": "bool"
            },
            {
              "internalType": "bool",
              "name": "stableBorrowRateEnabled",
              "type": "bool"
            },
            {
              "internalType": "uint256",
              "name": "liquidationThreshold",
              "type": "uint256"
            },
            {
              "internalType": "uint256",
              "name": "ltv",
              "type": "uint256"
            },
            {
              "internalType": "uint256",
              "name": "decimals",
              "type": "uint256"
            }
          ],
          "internalType": "struct IAaveLeveragedSwapManager.TokenInfo[]",
          "name": "_assets",
          "type": "tuple[]"
        },
        {
          "internalType": "uint256[]",
          "name": "_amounts",
          "type": "uint256[]"
        },
        {
          "components": [
            {
              "internalType": "address",
              "name": "tokenAddress",
              "type": "address"
            },
            {
              "internalType": "bool",
              "name": "borrowable",
              "type": "bool"
            },
            {
              "internalType": "bool",
              "name": "canBeCollateral",
              "type": "bool"
            },
            {
              "internalType": "bool",
              "name": "stableBorrowRateEnabled",
              "type": "bool"
            },
            {
              "internalType": "uint256",
              "name": "liquidationThreshold",
              "type": "uint256"
            },
            {
              "internalType": "uint256",
              "name": "ltv",
              "type": "uint256"
            },
            {
              "internalType": "uint256",
              "name": "decimals",
              "type": "uint256"
            }
          ],
          "internalType": "struct IAaveLeveragedSwapManager.TokenInfo",
          "name": "_targetToken",
          "type": "tuple"
        },
        {
          "internalType": "uint256",
          "name": "_targetAmount",
          "type": "uint256"
        },
        {
          "internalType": "uint256",
          "name": "_rateMode",
          "type": "uint256"
        },
        {
          "internalType": "uint256",
          "name": "_slippage",
          "type": "uint256"
        },
        {
          "internalType": "bool",
          "name": "_feePaidByCollateral",
          "type": "bool"
        }
      ],
      "name": "checkAndCalculateRepayVars",
      "outputs": [
        {
          "components": [
            {
              "internalType": "uint256",
              "name": "loanETH",
              "type": "uint256"
            },
            {
              "internalType": "uint256",
              "name": "feeETH",
              "type": "uint256"
            },
            {
              "internalType": "uint256",
              "name": "totalCollateralReducedETH",
              "type": "uint256"
            },
            {
              "internalType": "uint256",
              "name": "flashLoanETH",
              "type": "uint256"
            },
            {
              "internalType": "uint256",
              "name": "currentHealthFactor",
              "type": "uint256"
            },
            {
              "internalType": "uint256",
              "name": "expectedHealthFactor",
              "type": "uint256"
            },
            {
              "internalType": "uint256[]",
              "name": "reducedCollateralValues",
              "type": "uint256[]"
            }
          ],
          "internalType": "struct AaveLeveragedSwapBase.RepayVars",
          "name": "repayVars",
          "type": "tuple"
        }
      ],
      "stateMutability": "view",
      "type": "function"
    },
    {
      "inputs": [
        {
          "components": [
            {
              "internalType": "address",
              "name": "tokenAddress",
              "type": "address"
            },
            {
              "internalType": "bool",
              "name": "borrowable",
              "type": "bool"
            },
            {
              "internalType": "bool",
              "name": "canBeCollateral",
              "type": "bool"
            },
            {
              "internalType": "bool",
              "name": "stableBorrowRateEnabled",
              "type": "bool"
            },
            {
              "internalType": "uint256",
              "name": "liquidationThreshold",
              "type": "uint256"
            },
            {
              "internalType": "uint256",
              "name": "ltv",
              "type": "uint256"
            },
            {
              "internalType": "uint256",
              "name": "decimals",
              "type": "uint256"
            }
          ],
          "internalType": "struct IAaveLeveragedSwapManager.TokenInfo",
          "name": "_targetToken",
          "type": "tuple"
        },
        {
          "internalType": "uint256",
          "name": "_targetTokenAmount",
          "type": "uint256"
        },
        {
          "components": [
            {
              "internalType": "address",
              "name": "tokenAddress",
              "type": "address"
            },
            {
              "internalType": "bool",
              "name": "borrowable",
              "type": "bool"
            },
            {
              "internalType": "bool",
              "name": "canBeCollateral",
              "type": "bool"
            },
            {
              "internalType": "bool",
              "name": "stableBorrowRateEnabled",
              "type": "bool"
            },
            {
              "internalType": "uint256",
              "name": "liquidationThreshold",
              "type": "uint256"
            },
            {
              "internalType": "uint256",
              "name": "ltv",
              "type": "uint256"
            },
            {
              "internalType": "uint256",
              "name": "decimals",
              "type": "uint256"
            }
          ],
          "internalType": "struct IAaveLeveragedSwapManager.TokenInfo",
          "name": "_pairToken",
          "type": "tuple"
        },
        {
          "internalType": "uint256",
          "name": "_slippage",
          "type": "uint256"
        },
        {
          "internalType": "bool",
          "name": "_feePaidByCollateral",
          "type": "bool"
        }
      ],
      "name": "checkAndCalculateSwapVars",
      "outputs": [
        {
          "components": [
            {
              "internalType": "uint256",
              "name": "loanETH",
              "type": "uint256"
            },
            {
              "internalType": "uint256",
              "name": "maxLoanETH",
              "type": "uint256"
            },
            {
              "internalType": "uint256",
              "name": "feeETH",
              "type": "uint256"
            },
            {
              "internalType": "uint256",
              "name": "flashLoanETH",
              "type": "uint256"
            },
            {
              "internalType": "uint256",
              "name": "currentHealthFactor",
              "type": "uint256"
            },
            {
              "internalType": "uint256",
              "name": "expectedHealthFactor",
              "type": "uint256"
            }
          ],
          "internalType": "struct AaveLeveragedSwapBase.SwapVars",
          "name": "swapVars",
          "type": "tuple"
        }
      ],
      "stateMutability": "view",
      "type": "function"
    },
    {
      "inputs": [
        {
          "internalType": "address[]",
          "name": "_assets",
          "type": "address[]"
        },
        {
          "internalType": "uint256[]",
          "name": "_amounts",
          "type": "uint256[]"
        },
        {
          "internalType": "uint256[]",
          "name": "_premiums",
          "type": "uint256[]"
        },
        {
          "internalType": "address",
          "name": "_initiator",
          "type": "address"
        },
        {
          "internalType": "bytes",
          "name": "",
          "type": "bytes"
        }
      ],
      "name": "executeOperation",
      "outputs": [
        {
          "internalType": "bool",
          "name": "",
          "type": "bool"
        }
      ],
      "stateMutability": "nonpayable",
      "type": "function"
    },
    {
      "inputs": [],
      "name": "getAssetPositions",
      "outputs": [
        {
          "components": [
            {
              "internalType": "string",
              "name": "symbol",
              "type": "string"
            },
            {
              "internalType": "address",
              "name": "token",
              "type": "address"
            },
            {
              "internalType": "uint256",
              "name": "aTokenBalance",
              "type": "uint256"
            },
            {
              "internalType": "uint256",
              "name": "stableDebt",
              "type": "uint256"
            },
            {
              "internalType": "uint256",
              "name": "variableDebt",
              "type": "uint256"
            },
            {
              "internalType": "uint256",
              "name": "principalStableDebt",
              "type": "uint256"
            },
            {
              "internalType": "uint256",
              "name": "scaledVariableDebt",
              "type": "uint256"
            },
            {
              "internalType": "bool",
              "name": "usedAsCollateral",
              "type": "bool"
            },
            {
              "internalType": "bool",
              "name": "borrowable",
              "type": "bool"
            },
            {
              "internalType": "bool",
              "name": "canBeCollateral",
              "type": "bool"
            },
            {
              "internalType": "bool",
              "name": "stableBorrowRateEnabled",
              "type": "bool"
            }
          ],
          "internalType": "struct IAaveLeveragedSwapManager.Position[]",
          "name": "positions",
          "type": "tuple[]"
        }
      ],
      "stateMutability": "view",
      "type": "function"
    },
    {
      "inputs": [
        {
          "internalType": "address",
          "name": "_token",
          "type": "address"
        }
      ],
      "name": "getTokenInfo",
      "outputs": [
        {
          "components": [
            {
              "internalType": "address",
              "name": "tokenAddress",
              "type": "address"
            },
            {
              "internalType": "bool",
              "name": "borrowable",
              "type": "bool"
            },
            {
              "internalType": "bool",
              "name": "canBeCollateral",
              "type": "bool"
            },
            {
              "internalType": "bool",
              "name": "stableBorrowRateEnabled",
              "type": "bool"
            },
            {
              "internalType": "uint256",
              "name": "liquidationThreshold",
              "type": "uint256"
            },
            {
              "internalType": "uint256",
              "name": "ltv",
              "type": "uint256"
            },
            {
              "internalType": "uint256",
              "name": "decimals",
              "type": "uint256"
            }
          ],
          "internalType": "struct IAaveLeveragedSwapManager.TokenInfo",
          "name": "tokenInfo",
          "type": "tuple"
        }
      ],
      "stateMutability": "view",
      "type": "function"
    },
    {
      "inputs": [
        {
          "internalType": "address",
          "name": "_addressProvider",
          "type": "address"
        },
        {
          "internalType": "address",
          "name": "_sushiRouter",
          "type": "address"
        },
        {
          "internalType": "address",
          "name": "_nativeETH",
          "type": "address"
        }
      ],
      "name": "initialize",
      "outputs": [],
      "stateMutability": "nonpayable",
      "type": "function"
    },
    {
      "inputs": [
        {
          "components": [
            {
              "internalType": "address",
              "name": "tokenAddress",
              "type": "address"
            },
            {
              "internalType": "bool",
              "name": "borrowable",
              "type": "bool"
            },
            {
              "internalType": "bool",
              "name": "canBeCollateral",
              "type": "bool"
            },
            {
              "internalType": "bool",
              "name": "stableBorrowRateEnabled",
              "type": "bool"
            },
            {
              "internalType": "uint256",
              "name": "liquidationThreshold",
              "type": "uint256"
            },
            {
              "internalType": "uint256",
              "name": "ltv",
              "type": "uint256"
            },
            {
              "internalType": "uint256",
              "name": "decimals",
              "type": "uint256"
            }
          ],
          "internalType": "struct IAaveLeveragedSwapManager.TokenInfo[]",
          "name": "_collaterals",
          "type": "tuple[]"
        },
        {
          "internalType": "uint256[]",
          "name": "_collateralAmounts",
          "type": "uint256[]"
        },
        {
          "components": [
            {
              "internalType": "address",
              "name": "tokenAddress",
              "type": "address"
            },
            {
              "internalType": "bool",
              "name": "borrowable",
              "type": "bool"
            },
            {
              "internalType": "bool",
              "name": "canBeCollateral",
              "type": "bool"
            },
            {
              "internalType": "bool",
              "name": "stableBorrowRateEnabled",
              "type": "bool"
            },
            {
              "internalType": "uint256",
              "name": "liquidationThreshold",
              "type": "uint256"
            },
            {
              "internalType": "uint256",
              "name": "ltv",
              "type": "uint256"
            },
            {
              "internalType": "uint256",
              "name": "decimals",
              "type": "uint256"
            }
          ],
          "internalType": "struct IAaveLeveragedSwapManager.TokenInfo",
          "name": "_targetToken",
          "type": "tuple"
        },
        {
          "internalType": "uint256",
          "name": "_targetAmount",
          "type": "uint256"
        },
        {
          "internalType": "uint256",
          "name": "_rateMode",
          "type": "uint256"
        },
        {
          "internalType": "uint256",
          "name": "_slippage",
          "type": "uint256"
        }
      ],
      "name": "repayDebt",
      "outputs": [],
      "stateMutability": "payable",
      "type": "function"
    },
    {
      "inputs": [
        {
          "components": [
            {
              "internalType": "address",
              "name": "tokenAddress",
              "type": "address"
            },
            {
              "internalType": "bool",
              "name": "borrowable",
              "type": "bool"
            },
            {
              "internalType": "bool",
              "name": "canBeCollateral",
              "type": "bool"
            },
            {
              "internalType": "bool",
              "name": "stableBorrowRateEnabled",
              "type": "bool"
            },
            {
              "internalType": "uint256",
              "name": "liquidationThreshold",
              "type": "uint256"
            },
            {
              "internalType": "uint256",
              "name": "ltv",
              "type": "uint256"
            },
            {
              "internalType": "uint256",
              "name": "decimals",
              "type": "uint256"
            }
          ],
          "internalType": "struct IAaveLeveragedSwapManager.TokenInfo",
          "name": "_targetToken",
          "type": "tuple"
        },
        {
          "internalType": "uint256",
          "name": "_targetAmount",
          "type": "uint256"
        },
        {
          "components": [
            {
              "internalType": "address",
              "name": "tokenAddress",
              "type": "address"
            },
            {
              "internalType": "bool",
              "name": "borrowable",
              "type": "bool"
            },
            {
              "internalType": "bool",
              "name": "canBeCollateral",
              "type": "bool"
            },
            {
              "internalType": "bool",
              "name": "stableBorrowRateEnabled",
              "type": "bool"
            },
            {
              "internalType": "uint256",
              "name": "liquidationThreshold",
              "type": "uint256"
            },
            {
              "internalType": "uint256",
              "name": "ltv",
              "type": "uint256"
            },
            {
              "internalType": "uint256",
              "name": "decimals",
              "type": "uint256"
            }
          ],
          "internalType": "struct IAaveLeveragedSwapManager.TokenInfo",
          "name": "_pairToken",
          "type": "tuple"
        },
        {
          "internalType": "uint256",
          "name": "_rateMode",
          "type": "uint256"
        },
        {
          "internalType": "uint256",
          "name": "_slippage",
          "type": "uint256"
        }
      ],
      "name": "swapPreapprovedAssets",
      "outputs": [],
      "stateMutability": "payable",
      "type": "function"
    },
    {
      "inputs": [],
      "name": "vars",
      "outputs": [
        {
          "internalType": "uint256",
          "name": "targetTokenAmount",
          "type": "uint256"
        },
        {
          "internalType": "uint256",
          "name": "pairTokenAmount",
          "type": "uint256"
        },
        {
          "internalType": "uint256",
          "name": "feeTokenAmount",
          "type": "uint256"
        },
        {
          "internalType": "uint256",
          "name": "loanETH",
          "type": "uint256"
        },
        {
          "internalType": "uint256",
          "name": "feeETH",
          "type": "uint256"
        },
        {
          "internalType": "uint256",
          "name": "slippage",
          "type": "uint256"
        },
        {
          "internalType": "uint256",
          "name": "borrowRateMode",
          "type": "uint256"
        },
        {
          "components": [
            {
              "internalType": "address",
              "name": "tokenAddress",
              "type": "address"
            },
            {
              "internalType": "bool",
              "name": "borrowable",
              "type": "bool"
            },
            {
              "internalType": "bool",
              "name": "canBeCollateral",
              "type": "bool"
            },
            {
              "internalType": "bool",
              "name": "stableBorrowRateEnabled",
              "type": "bool"
            },
            {
              "internalType": "uint256",
              "name": "liquidationThreshold",
              "type": "uint256"
            },
            {
              "internalType": "uint256",
              "name": "ltv",
              "type": "uint256"
            },
            {
              "internalType": "uint256",
              "name": "decimals",
              "type": "uint256"
            }
          ],
          "internalType": "struct IAaveLeveragedSwapManager.TokenInfo",
          "name": "targetToken",
          "type": "tuple"
        },
        {
          "components": [
            {
              "internalType": "address",
              "name": "tokenAddress",
              "type": "address"
            },
            {
              "internalType": "bool",
              "name": "borrowable",
              "type": "bool"
            },
            {
              "internalType": "bool",
              "name": "canBeCollateral",
              "type": "bool"
            },
            {
              "internalType": "bool",
              "name": "stableBorrowRateEnabled",
              "type": "bool"
            },
            {
              "internalType": "uint256",
              "name": "liquidationThreshold",
              "type": "uint256"
            },
            {
              "internalType": "uint256",
              "name": "ltv",
              "type": "uint256"
            },
            {
              "internalType": "uint256",
              "name": "decimals",
              "type": "uint256"
            }
          ],
          "internalType": "struct IAaveLeveragedSwapManager.TokenInfo",
          "name": "pairToken",
          "type": "tuple"
        },
        {
          "internalType": "address",
          "name": "user",
          "type": "address"
        }
      ],
      "stateMutability": "view",
      "type": "function"
    }
  ],
  "bytecode": "0x608060405234801561001057600080fd5b506001600055614c1f806100256000396000f3fe60806040526004361061009c5760003560e01c8063617ad76c11610064578063617ad76c146102935780638ee92519146102ff578063920f5c8414610314578063c0c53b8b14610344578063c1d1c9ae14610364578063d5ee2f00146103775761009c565b80630e5376d6146100e3578063119d6105146102095780631f69565f1461022f5780632e91438e1461025c5780634b4f1a231461027e575b3480156100a857600080fd5b50604080518082018252600381526245323160e81b6020820152905162461bcd60e51b81526100da9190600401614747565b60405180910390fd5b3480156100ef57600080fd5b50600a54600b54600c54600d54600e54600f546010546040805160e080820183526011546001600160a01b038082168452600160a01b80830460ff9081161515602080880191909152600160a81b80860483161515888a0152600160b01b95869004831615156060808a01919091526012546080808b019190915260135460a0808c019190915260145460c0808d01919091528c519a8b018d52601554808a168c5297880487161515958b0195909552928604851615159a89019a909a52959093049091161515938501939093526016549584019590955260175494830194909452601854908201526019546101ea9a99989796959493168a565b6040516102009a99989796959493929190614831565b60405180910390f35b34801561021557600080fd5b50610221600160f81b81565b604051908152602001610200565b34801561023b57600080fd5b5061024f61024a366004613ca5565b6103a4565b60405161020091906147b2565b34801561026857600080fd5b506102716104dd565b6040516102009190614669565b61029161028c366004613fd8565b610817565b005b34801561029f57600080fd5b506102b36102ae366004614298565b610b68565b6040516102009190600060c082019050825182526020830151602083015260408301516040830152606083015160608301526080830151608083015260a083015160a083015292915050565b34801561030b57600080fd5b50610221600981565b34801561032057600080fd5b5061033461032f366004613d6c565b610e7b565b6040519015158152602001610200565b34801561035057600080fd5b5061029161035f366004613cdf565b611113565b6102916103723660046142f9565b6113e8565b34801561038357600080fd5b506103976103923660046140a5565b611705565b604051610200919061475a565b6040805160e081018252600060208201819052818301819052606082018190526080820181905260a0820181905260c082018190526001600160a01b038481168084526003549451633e15014160e01b8152600481019190915292939192839290911690633e150141906024016101406040518083038186803b15801561042a57600080fd5b505afa15801561043e573d6000803e3d6000fd5b505050506040513d601f19601f820116820180604052508101906104629190614366565b91151560608d015291151560208c01529115801560408c0181905260808c019690965260a08b019690965260c08a01969096529496509394509092506104b0905057508180156104b0575080155b15156040840152602083015180156104ce57508180156104ce575080155b15156020840152509092915050565b60606000600360009054906101000a90046001600160a01b03166001600160a01b031663b316ff896040518163ffffffff1660e01b815260040160006040518083038186803b15801561052f57600080fd5b505afa158015610543573d6000803e3d6000fd5b505050506040513d6000823e601f3d908101601f1916820160405261056b9190810190613e70565b905080516001600160401b0381111561058657610586614b0b565b60405190808252806020026020018201604052801561062557816020015b6106126040518061016001604052806060815260200160006001600160a01b0316815260200160008152602001600081526020016000815260200160008152602001600081526020016000151581526020016000151581526020016000151581526020016000151581525090565b8152602001906001900390816105a45790505b50915060005b815181101561081257600061065c83838151811061064b5761064b614af5565b6020026020010151602001516103a4565b9050600080600080600080600360009054906101000a90046001600160a01b03166001600160a01b03166328dd2d018a8a8151811061069d5761069d614af5565b60209081029190910181015101516040516001600160e01b031960e084901b1681526001600160a01b0390911660048201523360248201526044016101206040518083038186803b1580156106f157600080fd5b505afa158015610705573d6000803e3d6000fd5b505050506040513d601f19601f820116820180604052508101906107299190614457565b9850505050955095509550955095506040518061016001604052808a8a8151811061075657610756614af5565b60200260200101516000015181526020018a8a8151811061077957610779614af5565b6020026020010151602001516001600160a01b031681526020018781526020018681526020018581526020018481526020018381526020018215158152602001886020015115158152602001886040015115158152602001886060015115158152508a89815181106107ed576107ed614af5565b602002602001018190525050505050505050808061080a90614a98565b91505061062b565b505090565b6002600054141561086a5760405162461bcd60e51b815260206004820152601f60248201527f5265656e7472616e637947756172643a207265656e7472616e742063616c6c0060448201526064016100da565b60026000908155601980546001600160a01b031916331790558451601180546020808901516040808b015160608c01511515600160b01b0260ff60b01b19911515600160a81b029190911661ffff60a81b19931515600160a01b026001600160a81b03199096166001600160a01b03989098169790971794909417919091169490941791909117909155608087015160125560a087015160135560c0870151601455600a8690556010859055600f84905581518a8202810182019092528982526109ac91908b908b908190869085015b828210156109665761095760e0830286013681900381019061427c565b8152602001906001019061093a565b50505050508888808060200260200160405190810160405280939291908181526020018383602002808284376000920191909152508a9250899150889050873415611705565b805160408083015181518083019092526002825261453960f01b60208301529293509110156109ee5760405162461bcd60e51b81526004016100da9190614747565b50670de0b6b3a76400008160a001511160405180604001604052806002815260200161453560f01b81525090610a375760405162461bcd60e51b81526004016100da9190614747565b5060c08101516020820151600e55610a4f6007611a7a565b15610a5c57610a5c614ab3565b60005b89811015610b3357600060405180604001604052808b8b85818110610a8657610a86614af5565b905060200201358152602001848481518110610aa457610aa4614af5565b60200260200101518152509050610ae58c8c84818110610ac657610ac6614af5565b610adc92602060e0909202019081019150613ca5565b60079083611a8b565b60405180604001604052806002815260200161229b60f11b81525090610b1e5760405162461bcd60e51b81526004016100da9190614747565b50508080610b2b90614a98565b915050610a5f565b503415610b4357610b4334611ac6565b8551610b4f9086611b68565b610b57611cc3565b505060016000555050505050505050565b610ba16040518060c001604052806000815260200160008152602001600081526020016000815260200160008152602001600081525090565b60408085015181518083019092526002825261453360f01b6020830152610bdb5760405162461bcd60e51b81526004016100da9190614747565b50600254604051632fe4a15f60e21b81523360048201526000918291829182916001600160a01b039091169063bf92857c9060240160c06040518083038186803b158015610c2857600080fd5b505afa158015610c3c573d6000803e3d6000fd5b505050506040513d601f19601f82011682018060405250810190610c60919061440d565b60808b0152506020808f0151604080518082019091526002815261114d60f21b9281019290925294985090965090945090925090610cb15760405162461bcd60e51b81526004016100da9190614747565b50600480548b5160405163b3596f0760e01b8152610d4a938d936001600160a01b03169263b3596f0792610cf492016001600160a01b0391909116815260200190565b60206040518083038186803b158015610d0c57600080fd5b505afa158015610d20573d6000803e3d6000fd5b505050506040513d601f19601f82011682018060405250810190610d44919061434d565b90611d77565b8552610d63610d5b88612710614a04565b865190611e2b565b60608601526000610d84610d7989612710614a04565b60a08b015190611e2b565b610d9090612710614a04565b90508615610dea576000610da760096127106148c0565b6060880151909150610db99082611eb5565b6060880152610dc96009836148c0565b9150610ddf82610dd98684611e2b565b90611eb5565b602088015250610dfa565b610df48382611eb5565b60208701525b6060860151610e0a906009611e2b565b60408701526000610e1b8686611e2b565b60808b01516060890151610e2e91611e2b565b610e3891906148c0565b8751909150600090610e4a90856148c0565b90508015610e6157610e5c8282611f81565b610e65565b6000195b60a089015250959b9a5050505050505050505050565b60025460408051808201909152600381526222991960e91b60208201526000916001600160a01b03163314610ec35760405162461bcd60e51b81526004016100da9190614747565b50600189148015610edc57506001600160a01b03841630145b610ee857610ee8614ab3565b6015546001600160a01b03168a8a600081610f0557610f05614af5565b9050602002016020810190610f1a9190613ca5565b6001600160a01b03161415610ff957600b548888600081610f3d57610f3d614af5565b9050602002013514610f5157610f51614ab3565b6040805160e0810182526015546001600160a01b038116825260ff600160a01b8204811615156020840152600160a81b82048116151593830193909352600160b01b900490911615156060820152601654608082015260175460a082015260185460c0820152610ff2908989600081610fcc57610fcc614af5565b9050602002013588886000818110610fe657610fe6614af5565b9050602002013561203d565b9050611106565b6011546001600160a01b03168a8a60008161101657611016614af5565b905060200201602081019061102b9190613ca5565b6001600160a01b03161480156110595750600a54888860008161105057611050614af5565b90506020020135145b61106557611065614ab3565b6040805160e0810182526011546001600160a01b038116825260ff600160a01b8204811615156020840152600160a81b82048116151593830193909352600160b01b900490911615156060820152601254608082015260135460a082015260145460c0820152610ff29089896000816110e0576110e0614af5565b90506020020135888860008181106110fa576110fa614af5565b905060200201356125dd565b9998505050505050505050565b600154610100900460ff1661112e5760015460ff1615611132565b303b155b6111955760405162461bcd60e51b815260206004820152602e60248201527f496e697469616c697a61626c653a20636f6e747261637420697320616c72656160448201526d191e481a5b9a5d1a585b1a5e995960921b60648201526084016100da565b600154610100900460ff161580156111b7576001805461ffff19166101011790555b83600160026101000a8154816001600160a01b0302191690836001600160a01b03160217905550600160029054906101000a90046001600160a01b03166001600160a01b0316630261bf8b6040518163ffffffff1660e01b815260040160206040518083038186803b15801561122c57600080fd5b505afa158015611240573d6000803e3d6000fd5b505050506040513d601f19601f820116820180604052508101906112649190613cc2565b600280546001600160a01b0319166001600160a01b039283161790556001546040516321f8a72160e01b8152600160f81b600482015262010000909104909116906321f8a7219060240160206040518083038186803b1580156112c657600080fd5b505afa1580156112da573d6000803e3d6000fd5b505050506040513d601f19601f820116820180604052508101906112fe9190613cc2565b600380546001600160a01b0319166001600160a01b0392831617905560015460408051631f94a27560e31b81529051620100009092049092169163fca513a8916004808301926020929190829003018186803b15801561135d57600080fd5b505afa158015611371573d6000803e3d6000fd5b505050506040513d601f19601f820116820180604052508101906113959190613cc2565b600480546001600160a01b03199081166001600160a01b03938416179091556005805482168684161790556006805490911691841691909117905580156113e2576001805461ff00191690555b50505050565b6002600054141561143b5760405162461bcd60e51b815260206004820152601f60248201527f5265656e7472616e637947756172643a207265656e7472616e742063616c6c0060448201526064016100da565b600260008190555033600a600f0160006101000a8154816001600160a01b0302191690836001600160a01b0316021790555084600a60070160008201518160000160006101000a8154816001600160a01b0302191690836001600160a01b0316021790555060208201518160000160146101000a81548160ff02191690831515021790555060408201518160000160156101000a81548160ff02191690831515021790555060608201518160000160166101000a81548160ff0219169083151502179055506080820151816001015560a0820151816002015560c0820151816003015590505083600a6000018190555082600a600b0160008201518160000160006101000a8154816001600160a01b0302191690836001600160a01b0316021790555060208201518160000160146101000a81548160ff02191690831515021790555060408201518160000160156101000a81548160ff02191690831515021790555060608201518160000160166101000a81548160ff0219169083151502179055506080820151816001015560a0820151816002015560c0820151816003015590505081600a6006018190555080600a6005018190555060006116058686868534600014610b68565b905080602001518160000151111560405180604001604052806002815260200161453160f01b8152509061164c5760405162461bcd60e51b81526004016100da9190614747565b508051600d556040810151600e556060810151341561166e5761166e34611ac6565b6040805160e0810182526015546001600160a01b038116825260ff600160a01b8204811615156020840152600160a81b82048116151593830193909352600160b01b900490911615156060820152601654608082015260175460a082015260185460c08201526116df908290612adc565b600b81905585516116ef91611b68565b6116f7611cc3565b505060016000555050505050565b6117456040518060e00160405280600081526020016000815260200160008152602001600081526020016000815260200160008152602001606081525090565b61175186868633612b76565b6060820152600254604051632fe4a15f60e21b8152336004820152600091829182916001600160a01b03169063bf92857c9060240160c06040518083038186803b15801561179e57600080fd5b505afa1580156117b2573d6000803e3d6000fd5b505050506040513d601f19601f820116820180604052508101906117d6919061440d565b60808a0152508d518f51604080518082019091526002815261453760f01b602082015295985091965092945090911490506118245760405162461bcd60e51b81526004016100da9190614747565b508a516001600160401b0381111561183e5761183e614b0b565b604051908082528060200260200182016040528015611867578160200160208202803683370190505b5060c08501526118778383611e2b565b925060005b8b518110156119ec576000806118c58e848151811061189d5761189d614af5565b60200260200101518e85815181106118b7576118b7614af5565b602002602001015133612d32565b915091508080156118f057508d83815181106118e3576118e3614af5565b6020026020010151604001515b6040518060400160405280600281526020016108a760f31b815250906119295760405162461bcd60e51b81526004016100da9190614747565b50818760c00151848151811061194157611941614af5565b602002602001018181525050818760400181815161195f91906148c0565b9052508d51611995908f908590811061197a5761197a614af5565b60200260200101516080015183611e2b90919063ffffffff16565b91508186116040518060400160405280600381526020016204531360ec1b815250906119d45760405162461bcd60e51b81526004016100da9190614747565b505090930392806119e481614a98565b91505061187c565b5060608401516119fd906009611e2b565b6020850152611a3a611a1187612710614a04565b86611a2f5785602001518660600151611a2a91906148c0565b610dd9565b856060015190611eb5565b845260608401518111611a545760001960a0850152611a6c565b6060840151611a669084908303611f81565b60a08501525b505050979650505050505050565b6000611a8582612e58565b92915050565b6001600160a01b0382166000908152600280850160205260408220611ab1918490613abd565b50611abc8484612e62565b90505b9392505050565b600f54600090611b2190611adc90612710614a04565b6004805460065460405163b3596f0760e01b81526001600160a01b0391821693810193909352611b1b928792919091169063b3596f0790602401610cf4565b90611e2b565b600e5460408051808201909152600381526222989b60e91b6020820152919250821015611b615760405162461bcd60e51b81526004016100da9190614747565b5050600c55565b604080516001808252818301909252600091602080830190803683370190505090508281600081518110611b9e57611b9e614af5565b6001600160a01b0392909216602092830291909101909101526040805160018082528183019092526000918160200160208202803683370190505090508281600081518110611bef57611bef614af5565b6020908102919091010152604080516001808252818301909252600091816020016020820280368337019050509050600081600081518110611c3357611c33614af5565b6020908102919091018101919091526002546040805192830181526000808452905163ab9c4b5d60e01b81526001600160a01b039092169263ab9c4b5d92611c8a92309289928992899286929091906004016145eb565b600060405180830381600087803b158015611ca457600080fd5b505af1158015611cb8573d6000803e3d6000fd5b505050505050505050565b6000600a819055600b819055600c819055600d819055600e819055600f8190556010819055601180546001600160b81b0319908116909155601282905560138290556014829055601580549091169055601681905560178190556018819055601980546001600160a01b03191690555b611d3d6007611a7a565b811015611d74576000611d51600783612e77565b509050611d5f600782612ee8565b50508080611d6c90614a98565b915050611d33565b50565b6000821580611d84575081155b15611d9157506000611a85565b81611da56002670de0b6b3a76400006148d8565b611db190600019614a04565b611dbb91906148d8565b8311156040518060400160405280600381526020016208a62760eb1b81525090611df85760405162461bcd60e51b81526004016100da9190614747565b50670de0b6b3a7640000611e0d6002826148d8565b611e1784866149e5565b611e2191906148c0565b611abf91906148d8565b6000821580611e38575081155b15611e4557506000611a85565b81611e5360026127106148d8565b611e5f90600019614a04565b611e6991906148d8565b8311156040518060400160405280600381526020016208a62760eb1b81525090611ea65760405162461bcd60e51b81526004016100da9190614747565b50612710611e0d6002826148d8565b60408051808201909152600381526204532360ec1b602082015260009082611ef05760405162461bcd60e51b81526004016100da9190614747565b506000611efe6002846148d8565b9050612710611f0f82600019614a04565b611f1991906148d8565b8411156040518060400160405280600381526020016208a62760eb1b81525090611f565760405162461bcd60e51b81526004016100da9190614747565b508281611f65612710876149e5565b611f6f91906148c0565b611f7991906148d8565b949350505050565b60408051808201909152600381526204532360ec1b602082015260009082611fbc5760405162461bcd60e51b81526004016100da9190614747565b506000611fca6002846148d8565b9050670de0b6b3a7640000611fe182600019614a04565b611feb91906148d8565b8411156040518060400160405280600381526020016208a62760eb1b815250906120285760405162461bcd60e51b81526004016100da9190614747565b508281611f65670de0b6b3a7640000876149e5565b60025460c0840151600091612075916001600160a01b0390911690612063908690612f15565b86516001600160a01b03169190612fc4565b600254845160195460405163e8eda9df60e01b81526001600160a01b0392831660048201526024810187905290821660448201526000606482015291169063e8eda9df90608401600060405180830381600087803b1580156120d657600080fd5b505af11580156120ea573d6000803e3d6000fd5b5050600254601154600a5460105460195460405163a415bcad60e01b81526001600160a01b0394851660048201526024810193909352604483019190915260006064830152821660848201529116925063a415bcad915060a401600060405180830381600087803b15801561215e57600080fd5b505af192505050801561216f575060015b6121d75761217b614b21565b806308c379a014156121cb5750612190614b3d565b8061219b57506121cd565b6040805180820182526002815261229960f11b6020820152905162461bcd60e51b81526100da9190600401614747565b505b3d6000803e3d6000fd5b6040805160e080820183526011546001600160a01b038082168452600160a01b80830460ff9081161515602080880191909152600160a81b80860483161515888a0152600160b01b95869004831615156060808a01919091526012546080808b019190915260135460a0808c019190915260145460c0808d0191909152600a548d519b8c018e52601554998a168c5297890487161515958b0195909552928704851615159a89019a909a5295909404909116151593850193909352601654958401959095526017549083015260185490820152600f546000936123459392909161233f906122d4906122cb90612710614a04565b600d5490611e2b565b6040805160e0810182526015546001600160a01b038116825260ff600160a01b8204811615156020840152600160a81b82048116151593830193909352600160b01b900490911615156060820152601654608082015260175460a082015260185460c0820152612adc565b30613120565b600c54909150156124d6576124c9600a60020154600a600b016040518060e00160405290816000820160009054906101000a90046001600160a01b03166001600160a01b03166001600160a01b031681526020016000820160149054906101000a900460ff161515151581526020016000820160159054906101000a900460ff161515151581526020016000820160169054906101000a900460ff1615151515815260200160018201548152602001600282015481526020016003820154815250506124c3600a60040154600a600b016040518060e00160405290816000820160009054906101000a90046001600160a01b03166001600160a01b03166001600160a01b031681526020016000820160149054906101000a900460ff161515151581526020016000820160159054906101000a900460ff161515151581526020016000820160169054906101000a900460ff161515151581526020016001820154815260200160028201548152602001600382015481525050612adc565b306132bc565b6124d390826148c0565b90505b60006124e284866148c0565b9050808210156124f4576124f4614ab3565b60025460c08701518284039161252d916001600160a01b039091169061251b908590612f15565b89516001600160a01b03169190612fc4565b60195460c0880151612560916001600160a01b03169061254e908490612f15565b89516001600160a01b03169190613425565b8651601154601954600a54601054600f54604080516001600160a01b0395861681526020810194909452830191909152606082015260808101859052928116929116907f056c2bdaa16b494a4dd9d751792b7f9fd8c87a494cfa6ef5f6f8517fb7d655159060a00160405180910390a35060019695505050505050565b60025460c0840151600091612603916001600160a01b0390911690612063908690612f15565b600254845160105460195460405163573ade8160e01b81526001600160a01b0393841660048201526024810188905260448101929092528216606482015291169063573ade8190608401600060405180830381600087803b15801561266757600080fd5b505af115801561267b573d6000803e3d6000fd5b5060009250829150505b61268f6007611a7a565b81101561287a576000806126a4600784612e77565b9150915060006126b3836103a4565b90506126d28183600060200201516019546001600160a01b0316613455565b6002548251604051631a4ca37b60e21b81526001600160a01b03868116600483015260248201929092523060448201529116906369328dec90606401600060405180830381600087803b15801561272857600080fd5b505af115801561273c573d6000803e3d6000fd5b50505050612858818360006002811061275757612757614af5565b602090810291909101516040805160e0810182526011546001600160a01b038116825260ff600160a01b82048116151595830195909552600160a81b81048516151592820192909252600160b01b90910490921615156060830152601254608083015260135460a083015260145460c0830152600f5490919061233f906127e090612710614a04565b6020888101516040805160e0810182526011546001600160a01b038116825260ff600160a01b82048116151595830195909552600160a81b81048516151592820192909252600160b01b90910490921615156060830152601254608083015260135460a083015260145460c0830152611b1b91612adc565b61286290866148c0565b9450505050808061287290614a98565b915050612685565b50600c5415612a03576129f6600a60020154600a6007016040518060e00160405290816000820160009054906101000a90046001600160a01b03166001600160a01b03166001600160a01b031681526020016000820160149054906101000a900460ff161515151581526020016000820160159054906101000a900460ff161515151581526020016000820160169054906101000a900460ff1615151515815260200160018201548152602001600282015481526020016003820154815250506124c3600a60040154600a6007016040518060e00160405290816000820160009054906101000a90046001600160a01b03166001600160a01b03166001600160a01b031681526020016000820160149054906101000a900460ff161515151581526020016000820160159054906101000a900460ff161515151581526020016000820160169054906101000a900460ff161515151581526020016001820154815260200160028201548152602001600382015481525050612adc565b612a0090826148c0565b90505b6000612a0f84866148c0565b905080821015612a2157612a21614ab3565b60025460c087015182840391612a48916001600160a01b039091169061251b908590612f15565b60195460c0880151612a69916001600160a01b03169061254e908490612f15565b8651601954601054600f54604080516001600160a01b039485168152602081018c9052908101929092526060820152608081018490529116907fc1a24d9511ed1caed23b3cac9e41126eb5b30d008463b83d4c7df4bf4296c62a9060a00160405180910390a25060019695505050505050565b60048054825160405163b3596f0760e01b8152600093611abf936001600160a01b03169263b3596f0792612b1f92016001600160a01b0391909116815260200190565b60206040518083038186803b158015612b3757600080fd5b505afa158015612b4b573d6000803e3d6000fd5b505050506040513d601f19601f82011682018060405250810190612b6f919061434d565b8490611f81565b60035484516040516328dd2d0160e01b81526001600160a01b0391821660048201528382166024820152600092839283929116906328dd2d01906044016101206040518083038186803b158015612bcc57600080fd5b505afa158015612be0573d6000803e3d6000fd5b505050506040513d601f19601f82011682018060405250810190612c049190614457565b50505050505092509250508460011415612c595760408051808201909152600381526245313560e81b602082015282871115612c535760405162461bcd60e51b81526004016100da9190614747565b50612ce5565b8460021415612c9d57604080518082019091526003815262114c4d60ea1b602082015281871115612c535760405162461bcd60e51b81526004016100da9190614747565b60405162461bcd60e51b815260206004820152601960248201527f496e76616c696420626f72726f772072617465206d6f6465210000000000000060448201526064016100da565b60048054885160405163b3596f0760e01b8152612d27938a936001600160a01b03169263b3596f0792610cf492016001600160a01b0391909116815260200190565b979650505050505050565b60035483516040516328dd2d0160e01b81526001600160a01b0391821660048201528382166024820152600092839283929116906328dd2d01906044016101206040518083038186803b158015612d8857600080fd5b505afa158015612d9c573d6000803e3d6000fd5b505050506040513d601f19601f82011682018060405250810190612dc09190614457565b60408051808201909152600381526245313160e81b6020820152909a50979850505050898610159350612e0a925050505760405162461bcd60e51b81526004016100da9190614747565b5060048054875160405163b3596f0760e01b8152612e4d9389936001600160a01b03169263b3596f0792610cf492016001600160a01b0391909116815260200190565b925050935093915050565b6000611a85825490565b6000611abf836001600160a01b03841661361d565b6000612e81613afb565b6000612e8d858561366c565b6001600160a01b03811660009081526002878101602052604091829020825180840193849052939450849390929091839182845b815481526020019060010190808311612ec1575050505050905092509250505b9250929050565b6001600160a01b03811660009081526002830160205260408120818155600101819055611abf8383613678565b60008060128310612fa457612f2b601284614a04565b612f3690600a61493d565b612f4090856149e5565b905083612f4e601285614a04565b612f5990600a61493d565b612f6390836148d8565b146040518060400160405280600381526020016208a62760eb1b81525090612f9e5760405162461bcd60e51b81526004016100da9190614747565b50611abf565b612faf836012614a04565b612fba90600a61493d565b611abc90856148d8565b80158061304d5750604051636eb1769f60e11b81523060048201526001600160a01b03838116602483015284169063dd62ed3e9060440160206040518083038186803b15801561301357600080fd5b505afa158015613027573d6000803e3d6000fd5b505050506040513d601f19601f8201168201806040525081019061304b919061434d565b155b6130b85760405162461bcd60e51b815260206004820152603660248201527f5361666545524332303a20617070726f76652066726f6d206e6f6e2d7a65726f60448201527520746f206e6f6e2d7a65726f20616c6c6f77616e636560501b60648201526084016100da565b6040516001600160a01b03831660248201526044810182905261311b90849063095ea7b360e01b906064015b60408051601f198184030181529190526020810180516001600160e01b03166001600160e01b03199093169290921790915261368d565b505050565b825185516000916001600160a01b03918216911614156131415750836132b3565b60c0860151613151908690612f15565b945061316a8460c0015184612f1590919063ffffffff16565b6005548751919450613189916001600160a01b03908116911687612fc4565b600554865185516001600160a01b03909216916338ed17399188916001916131b09161375f565b86426040518663ffffffff1660e01b81526004016131d29594939291906147f5565b600060405180830381600087803b1580156131ec57600080fd5b505af192505050801561322157506040513d6000823e601f3d908101601f1916820160405261321e91908101906141be565b60015b61327e5761322d614b21565b806308c379a014156121cb5750613242614b3d565b8061324d57506121cd565b604080518082018252600381526245313760e81b6020820152905162461bcd60e51b81526100da9190600401614747565b6132af8560c001518260018151811061329957613299614af5565b60200260200101516137ed90919063ffffffff16565b9150505b95945050505050565b82516006546000916001600160a01b039182169116141561334857600660009054906101000a90046001600160a01b03166001600160a01b031663d0e30db0866040518263ffffffff1660e01b81526004016000604051808303818588803b15801561332757600080fd5b505af115801561333b573d6000803e3d6000fd5b5050505050849050611f79565b60c0840151613358908490612f15565b60055460065486519295506001600160a01b0391821692637ff36ab59289928892613386929091169061375f565b86426040518663ffffffff1660e01b81526004016133a794939291906147c0565b6000604051808303818588803b1580156133c057600080fd5b505af1935050505080156133f657506040513d6000823e601f3d908101601f191682016040526133f391908101906141be565b60015b6134025761322d614b21565b61341d8560c001518260018151811061329957613299614af5565b915050611f79565b6040516001600160a01b03831660248201526044810182905261311b90849063a9059cbb60e01b906064016130e4565b60035483516040516334924edb60e21b81526001600160a01b039182166004820152600092919091169063d2493b6c9060240160606040518083038186803b1580156134a057600080fd5b505afa1580156134b4573d6000803e3d6000fd5b505050506040513d601f19601f820116820180604052508101906134d89190613d2a565b50509050806001600160a01b03166323b872dd83306135048860c0015188612f1590919063ffffffff16565b6040516001600160e01b031960e086901b1681526001600160a01b0393841660048201529290911660248301526044820152606401602060405180830381600087803b15801561355357600080fd5b505af1925050508015613583575060408051601f3d908101601f191682019092526135809181019061425f565b60015b6135e05761358f614b21565b806308c379a014156121cb57506135a4614b3d565b806135af57506121cd565b604080518082018252600381526222989960e91b6020820152905162461bcd60e51b81526100da9190600401614747565b8061361657604080518082018252600381526245313360e81b6020820152905162461bcd60e51b81526100da9190600401614747565b5050505050565b600081815260018301602052604081205461366457508154600181810184556000848152602080822090930184905584548482528286019093526040902091909155611a85565b506000611a85565b6000611abf83836138a5565b6000611abf836001600160a01b0384166138cf565b60006136e2826040518060400160405280602081526020017f5361666545524332303a206c6f772d6c6576656c2063616c6c206661696c6564815250856001600160a01b03166139c29092919063ffffffff16565b80519091501561311b5780806020019051810190613700919061425f565b61311b5760405162461bcd60e51b815260206004820152602a60248201527f5361666545524332303a204552433230206f7065726174696f6e20646964206e6044820152691bdd081cdd58d8d9595960b21b60648201526084016100da565b6040805160028082526060808301845292602083019080368337019050509050828160008151811061379357613793614af5565b60200260200101906001600160a01b031690816001600160a01b03168152505081816001815181106137c7576137c7614af5565b60200260200101906001600160a01b031690816001600160a01b03168152505092915050565b6000806012831061381f57613803601284614a04565b61380e90600a61493d565b61381890856148d8565b9050611abf565b61382a836012614a04565b61383590600a61493d565b61383f90856149e5565b90508361384d601285614a04565b61385890600a61493d565b61386290836148d8565b146040518060400160405280600381526020016208a62760eb1b8152509061389d5760405162461bcd60e51b81526004016100da9190614747565b509392505050565b60008260000182815481106138bc576138bc614af5565b9060005260206000200154905092915050565b600081815260018301602052604081205480156139b85760006138f3600183614a04565b855490915060009061390790600190614a04565b905081811461396c57600086600001828154811061392757613927614af5565b906000526020600020015490508087600001848154811061394a5761394a614af5565b6000918252602080832090910192909255918252600188019052604090208390555b855486908061397d5761397d614adf565b600190038181906000526020600020016000905590558560010160008681526020019081526020016000206000905560019350505050611a85565b6000915050611a85565b6060611abc848460008585843b613a1b5760405162461bcd60e51b815260206004820152601d60248201527f416464726573733a2063616c6c20746f206e6f6e2d636f6e747261637400000060448201526064016100da565b600080866001600160a01b03168587604051613a3791906145cf565b60006040518083038185875af1925050503d8060008114613a74576040519150601f19603f3d011682016040523d82523d6000602084013e613a79565b606091505b5091509150612d2782828660608315613a93575081611abf565b825115613aa35782518084602001fd5b8160405162461bcd60e51b81526004016100da9190614747565b8260028101928215613aeb579160200282015b82811115613aeb578251825591602001919060010190613ad0565b50613af7929150613b19565b5090565b60405180604001604052806002906020820280368337509192915050565b5b80821115613af75760008155600101613b1a565b8051613b3981614bc6565b919050565b60008083601f840112613b5057600080fd5b5081356001600160401b03811115613b6757600080fd5b6020830191508360208260051b8501011115612ee157600080fd5b600082601f830112613b9357600080fd5b81356020613ba08261489d565b604051613bad8282614a6c565b8381528281019150858301600585901b87018401881015613bcd57600080fd5b60005b85811015613bec57813584529284019290840190600101613bd0565b5090979650505050505050565b8035613b3981614bdb565b600060e08284031215613c1657600080fd5b60405160e081018181106001600160401b0382111715613c3857613c38614b0b565b6040529050808235613c4981614bc6565b81526020830135613c5981614bdb565b6020820152613c6a60408401613bf9565b6040820152613c7b60608401613bf9565b60608201526080830135608082015260a083013560a082015260c083013560c08201525092915050565b600060208284031215613cb757600080fd5b8135611abf81614bc6565b600060208284031215613cd457600080fd5b8151611abf81614bc6565b600080600060608486031215613cf457600080fd5b8335613cff81614bc6565b92506020840135613d0f81614bc6565b91506040840135613d1f81614bc6565b809150509250925092565b600080600060608486031215613d3f57600080fd5b8351613d4a81614bc6565b6020850151909350613d5b81614bc6565b6040850151909250613d1f81614bc6565b600080600080600080600080600060a08a8c031215613d8a57600080fd5b89356001600160401b0380821115613da157600080fd5b613dad8d838e01613b3e565b909b50995060208c0135915080821115613dc657600080fd5b613dd28d838e01613b3e565b909950975060408c0135915080821115613deb57600080fd5b613df78d838e01613b3e565b909750955060608c01359150613e0c82614bc6565b90935060808b01359080821115613e2257600080fd5b818c0191508c601f830112613e3657600080fd5b813581811115613e4557600080fd5b8d6020828501011115613e5757600080fd5b6020830194508093505050509295985092959850929598565b600060208284031215613e8257600080fd5b81516001600160401b0380821115613e9957600080fd5b818401915084601f830112613ead57600080fd5b8151613eb88161489d565b604051613ec58282614a6c565b809150828152602081019150602085018860208560051b8801011115613eea57600080fd5b60005b84811015613fca57815186811115613f0457600080fd5b8701601f196040828d0382011215613f1b57600080fd5b604051613f2781614a47565b602083015189811115613f3957600080fd5b8301603f81018e13613f4a57600080fd5b60208101518a811115613f5f57613f5f614b0b565b604051613f74602086601f8501160182614a6c565b8181528f6040838501011115613f8957600080fd5b613f9a826020830160408601614a1b565b835250613fab905060408401613b2e565b6020828101919091529087529586019593909301925050600101613eed565b509098975050505050505050565b600080600080600080600080610180898b031215613ff557600080fd5b88356001600160401b038082111561400c57600080fd5b818b0191508b601f83011261402057600080fd5b81358181111561402f57600080fd5b8c602060e08302850101111561404457600080fd5b60209283019a509850908a0135908082111561405f57600080fd5b5061406c8b828c01613b3e565b909750955061408090508a60408b01613c04565b979a969950949793969561012085013595506101408501359461016001359350915050565b60008060008060008060006101a0888a0312156140c157600080fd5b87356001600160401b03808211156140d857600080fd5b818a0191508a601f8301126140ec57600080fd5b81356140f78161489d565b6040516141048282614a6c565b828152602080820192508581019060e085028701018f101561412557600080fd5b600095505b838610156141535761413c8f82613c04565b83526001959095019460209092019160e00161412a565b509a50505060208a013591508082111561416c57600080fd5b506141798a828b01613b82565b9650506141898960408a01613c04565b94506101208801359350610140880135925061016088013591506141b06101808901613bf9565b905092959891949750929550565b600060208083850312156141d157600080fd5b82516001600160401b038111156141e757600080fd5b8301601f810185136141f857600080fd5b80516142038161489d565b6040516142108282614a6c565b8281528481019150838501600584901b8501860189101561423057600080fd5b600094505b83851015614253578051835260019490940193918501918501614235565b50979650505050505050565b60006020828403121561427157600080fd5b8151611abf81614bdb565b600060e0828403121561428e57600080fd5b611abf8383613c04565b600080600080600061022086880312156142b157600080fd5b6142bb8787613c04565b945060e086013593506142d2876101008801613c04565b92506101e086013591506102008601356142eb81614bdb565b809150509295509295909350565b6000806000806000610220868803121561431257600080fd5b61431c8787613c04565b945060e08601359350614333876101008801613c04565b949793965093946101e08101359450610200013592915050565b60006020828403121561435f57600080fd5b5051919050565b6000806000806000806000806000806101408b8d03121561438657600080fd5b8a51995060208b0151985060408b0151975060608b0151965060808b0151955060a08b01516143b481614bdb565b60c08c01519095506143c581614bdb565b60e08c01519094506143d681614bdb565b6101008c01519093506143e881614bdb565b6101208c01519092506143fa81614bdb565b809150509295989b9194979a5092959850565b60008060008060008060c0878903121561442657600080fd5b865195506020870151945060408701519350606087015192506080870151915060a087015190509295509295509295565b60008060008060008060008060006101208a8c03121561447657600080fd5b8951985060208a0151975060408a0151965060608a0151955060808a0151945060a08a0151935060c08a0151925060e08a015164ffffffffff811681146144bc57600080fd5b6101008b01519092506144ce81614bdb565b809150509295985092959850929598565b600081518084526020808501945080840160005b838110156145185781516001600160a01b0316875295820195908201906001016144f3565b509495945050505050565b600081518084526020808501945080840160005b8381101561451857815187529582019590820190600101614537565b6000815180845261456b816020860160208601614a1b565b601f01601f19169290920160200192915050565b80516001600160a01b031682526020808201511515908301526040808201511515908301526060808201511515908301526080808201519083015260a0818101519083015260c090810151910152565b600082516145e1818460208701614a1b565b9190910192915050565b600060018060a01b03808a16835260e0602084015261460d60e084018a6144df565b838103604085015261461f818a614523565b905083810360608501526146338189614523565b9050818716608085015283810360a085015261464f8187614553565b9250505061ffff831660c083015298975050505050505050565b60006020808301818452808551808352604092508286019150828160051b87010184880160005b83811015613fca57603f19898403018552815161016081518186526146b782870182614553565b915050888201516146d28a8701826001600160a01b03169052565b508188015185890152606080830151908601526080808301519086015260a0808301519086015260c0808301519086015260e080830151151590860152610100808301511515908601526101208083015115159086015261014091820151151591909401529386019390860190600101614690565b602081526000611abf6020830184614553565b6020815281516020820152602082015160408201526040820151606082015260608201516080820152608082015160a082015260a082015160c0820152600060c083015160e080840152611f79610100840182614523565b60e08101611a85828461457f565b8481526080602082015260006147d960808301866144df565b6001600160a01b03949094166040830152506060015292915050565b85815284602082015260a06040820152600061481460a08301866144df565b6001600160a01b0394909416606083015250608001529392505050565b60006102c0820190508b82528a60208301528960408301528860608301528760808301528660a08301528560c083015261486e60e083018661457f565b61487c6101c083018561457f565b6001600160a01b03929092166102a091909101529998505050505050505050565b60006001600160401b038211156148b6576148b6614b0b565b5060051b60200190565b600082198211156148d3576148d3614ac9565b500190565b6000826148f557634e487b7160e01b600052601260045260246000fd5b500490565b600181815b8085111561493557816000190482111561491b5761491b614ac9565b8085161561492857918102915b93841c93908002906148ff565b509250929050565b6000611abf838360008261495357506001611a85565b8161496057506000611a85565b816001811461497657600281146149805761499c565b6001915050611a85565b60ff84111561499157614991614ac9565b50506001821b611a85565b5060208310610133831016604e8410600b84101617156149bf575081810a611a85565b6149c983836148fa565b80600019048211156149dd576149dd614ac9565b029392505050565b60008160001904831182151516156149ff576149ff614ac9565b500290565b600082821015614a1657614a16614ac9565b500390565b60005b83811015614a36578181015183820152602001614a1e565b838111156113e25750506000910152565b604081018181106001600160401b0382111715614a6657614a66614b0b565b60405250565b601f8201601f191681016001600160401b0381118282101715614a9157614a91614b0b565b6040525050565b6000600019821415614aac57614aac614ac9565b5060010190565b634e487b7160e01b600052600160045260246000fd5b634e487b7160e01b600052601160045260246000fd5b634e487b7160e01b600052603160045260246000fd5b634e487b7160e01b600052603260045260246000fd5b634e487b7160e01b600052604160045260246000fd5b600060033d1115614b3a5760046000803e5060005160e01c5b90565b600060443d1015614b4b5790565b6040516003193d81016004833e81513d6001600160401b038160248401118184111715614b7a57505050505090565b8285019150815181811115614b925750505050505090565b843d8701016020828501011115614bac5750505050505090565b614bbb60208286010187614a6c565b509095945050505050565b6001600160a01b0381168114611d7457600080fd5b8015158114611d7457600080fdfea264697066735822122012a5f8e72f5c673076e7beee6a9ba6f49de52babea898b3004764bde1555130e64736f6c63430008060033",
  "linkReferences": {},
  "deployedLinkReferences": {}
}