{
  "_format": "hh-sol-artifact-1",
  "contractName": "Errors",
  "sourceName": "contracts/utils/Errors.sol",
  "abi": [
    {
      "inputs": [],
      "name": "CONTRACT_FALLBACK_NOT_ALLOWED",
      "outputs": [
        {
          "internalType": "string",
          "name": "",
          "type": "string"
        }
      ],
      "stateMutability": "view",
      "type": "function"
    },
    {
      "inputs": [],
      "name": "CONTRACT_ONLY_CALLED_BY_LENDING_POOL",
      "outputs": [
        {
          "internalType": "string",
          "name": "",
          "type": "string"
        }
      ],
      "stateMutability": "view",
      "type": "function"
    },
    {
      "inputs": [],
      "name": "DELEVERAGE_ASSET_TOKEN_CANNOT_BE_COLLATERAL",
      "outputs": [
        {
          "internalType": "string",
          "name": "",
          "type": "string"
        }
      ],
      "stateMutability": "view",
      "type": "function"
    },
    {
      "inputs": [],
      "name": "DELEVERAGE_ATOKEN_SPECIFIED_EXCEEDS_OWNED",
      "outputs": [
        {
          "internalType": "string",
          "name": "",
          "type": "string"
        }
      ],
      "stateMutability": "view",
      "type": "function"
    },
    {
      "inputs": [],
      "name": "DELEVERAGE_DUPLICATE_ASSET_ENTRY",
      "outputs": [
        {
          "internalType": "string",
          "name": "",
          "type": "string"
        }
      ],
      "stateMutability": "view",
      "type": "function"
    },
    {
      "inputs": [],
      "name": "DELEVERAGE_HEALTH_FACTOR_BELOW_ONE",
      "outputs": [
        {
          "internalType": "string",
          "name": "",
          "type": "string"
        }
      ],
      "stateMutability": "view",
      "type": "function"
    },
    {
      "inputs": [],
      "name": "DELEVERAGE_MISMATCHED_ASSETS_AND_AMOUNTS",
      "outputs": [
        {
          "internalType": "string",
          "name": "",
          "type": "string"
        }
      ],
      "stateMutability": "view",
      "type": "function"
    },
    {
      "inputs": [],
      "name": "DELEVERAGE_REDUCED_ASSET_EXCCEED_NEEDED",
      "outputs": [
        {
          "internalType": "string",
          "name": "",
          "type": "string"
        }
      ],
      "stateMutability": "view",
      "type": "function"
    },
    {
      "inputs": [],
      "name": "DELEVERAGE_REDUCED_ASSET_NOT_ENOUGH",
      "outputs": [
        {
          "internalType": "string",
          "name": "",
          "type": "string"
        }
      ],
      "stateMutability": "view",
      "type": "function"
    },
    {
      "inputs": [],
      "name": "DELEVERAGE_STABLE_DEBT_SPECIFIED_EXCEEDS_OWNED",
      "outputs": [
        {
          "internalType": "string",
          "name": "",
          "type": "string"
        }
      ],
      "stateMutability": "view",
      "type": "function"
    },
    {
      "inputs": [],
      "name": "DELEVERAGE_USER_DID_NOT_APPROVE_ATOKEN_TRANSFER",
      "outputs": [
        {
          "internalType": "string",
          "name": "",
          "type": "string"
        }
      ],
      "stateMutability": "view",
      "type": "function"
    },
    {
      "inputs": [],
      "name": "DELEVERAGE_VARIABLE_DEBT_SPECIFIED_EXCEEDS_OWNED",
      "outputs": [
        {
          "internalType": "string",
          "name": "",
          "type": "string"
        }
      ],
      "stateMutability": "view",
      "type": "function"
    },
    {
      "inputs": [],
      "name": "LEVERAGE_COLLATERAL_NOT_ENOUGH",
      "outputs": [
        {
          "internalType": "string",
          "name": "",
          "type": "string"
        }
      ],
      "stateMutability": "view",
      "type": "function"
    },
    {
      "inputs": [],
      "name": "LEVERAGE_PAIR_TOKEN_NOT_COLLATERABLE",
      "outputs": [
        {
          "internalType": "string",
          "name": "",
          "type": "string"
        }
      ],
      "stateMutability": "view",
      "type": "function"
    },
    {
      "inputs": [],
      "name": "LEVERAGE_TARGET_TOKEN_NOT_BORROWABLE",
      "outputs": [
        {
          "internalType": "string",
          "name": "",
          "type": "string"
        }
      ],
      "stateMutability": "view",
      "type": "function"
    },
    {
      "inputs": [],
      "name": "LEVERAGE_USER_DID_NOT_DELEGATE_BORROW",
      "outputs": [
        {
          "internalType": "string",
          "name": "",
          "type": "string"
        }
      ],
      "stateMutability": "view",
      "type": "function"
    },
    {
      "inputs": [],
      "name": "MATH_ADDITION_OVERFLOW",
      "outputs": [
        {
          "internalType": "string",
          "name": "",
          "type": "string"
        }
      ],
      "stateMutability": "view",
      "type": "function"
    },
    {
      "inputs": [],
      "name": "MATH_DIVISION_BY_ZERO",
      "outputs": [
        {
          "internalType": "string",
          "name": "",
          "type": "string"
        }
      ],
      "stateMutability": "view",
      "type": "function"
    },
    {
      "inputs": [],
      "name": "MATH_MULTIPLICATION_OVERFLOW",
      "outputs": [
        {
          "internalType": "string",
          "name": "",
          "type": "string"
        }
      ],
      "stateMutability": "view",
      "type": "function"
    },
    {
      "inputs": [],
      "name": "OPS_FLASH_LOAN_FEE_NOT_ENOUGH",
      "outputs": [
        {
          "internalType": "string",
          "name": "",
          "type": "string"
        }
      ],
      "stateMutability": "view",
      "type": "function"
    },
    {
      "inputs": [],
      "name": "OPS_NOT_ABLE_TO_EXCHANGE_BY_SPECIFIED_SLIPPAGE",
      "outputs": [
        {
          "internalType": "string",
          "name": "",
          "type": "string"
        }
      ],
      "stateMutability": "view",
      "type": "function"
    }
  ],
  "bytecode": "0x6104a861003a600b82828239805160001a60731461002d57634e487b7160e01b600052600060045260246000fd5b30600052607381538281f3fe73000000000000000000000000000000000000000030146080604052600436106101415760003560e01c806363087eae116100c2578063a68f1e1c11610086578063a68f1e1c14610354578063b565dd9914610375578063bdc1e46914610397578063c03812fe146103b8578063c3cafdc2146103da578063d7d93d8f146103fc57600080fd5b806363087eae146102ac5780637933a6ec146102ce57806383df7d7f146102ef5780638f1bf2751461031157806394ae5cb31461033357600080fd5b8063274405e011610109578063274405e0146102055780632bf2860e146102265780632c1e247e146102475780634349e3d8146102695780635ce13a451461028b57600080fd5b8063024c481314610146578063029d23441461017d5780630f5ee4821461019f5780631ad0476f146101c15780631dd60981146101e3575b600080fd5b61016760405180604001604052806002815260200161229b60f11b81525081565b604051610174919061041d565b60405180910390f35b6101676040518060400160405280600381526020016245313760e81b81525081565b6101676040518060400160405280600381526020016208a62760eb1b81525081565b6101676040518060400160405280600381526020016222989b60e91b81525081565b6101676040518060400160405280600381526020016222989960e91b81525081565b61016760405180604001604052806002815260200161453360f01b81525081565b61016760405180604001604052806002815260200161114d60f21b81525081565b6101676040518060400160405280600381526020016204531360ec1b81525081565b6101676040518060400160405280600381526020016245313960e81b81525081565b61016760405180604001604052806002815260200161453160f01b81525081565b6101676040518060400160405280600381526020016245313360e81b81525081565b61016760405180604001604052806002815260200161453760f01b81525081565b6101676040518060400160405280600381526020016204532360ec1b81525081565b6101676040518060400160405280600381526020016245313160e81b81525081565b61016760405180604001604052806002815260200161229960f11b81525081565b61016760405180604001604052806002815260200161453560f01b81525081565b6101676040518060400160405280600381526020016245323160e81b81525081565b61016760405180604001604052806002815260200161453960f01b81525081565b61016760405180604001604052806003815260200162114c4d60ea1b81525081565b6101676040518060400160405280600381526020016245313560e81b81525081565b6101676040518060400160405280600281526020016108a760f31b81525081565b600060208083528351808285015260005b8181101561044a5785810183015185820160400152820161042e565b8181111561045c576000604083870101525b50601f01601f191692909201604001939250505056fea26469706673582212209695c57281105495c383874404df4b6ab188b27781f0b95a971b542a006bf2ca64736f6c63430008060033",
  "linkReferences": {},
  "deployedLinkReferences": {}
}