{
  "_format": "hh-sol-artifact-1",
  "contractName": "AaveLeveragedSwapManager",
  "sourceName": "contracts/AaveLeveragedSwapManager.sol",
  "abi": [
    {
      "anonymous": false,
      "inputs": [
        {
          "indexed": true,
          "internalType": "address",
          "name": "targetToken",
          "type": "address"
        },
        {
          "indexed": false,
          "internalType": "address",
          "name": "user",
          "type": "address"
        },
        {
          "indexed": false,
          "internalType": "uint256",
          "name": "targetAmount",
          "type": "uint256"
        },
        {
          "indexed": false,
          "internalType": "uint256",
          "name": "borrowRateMode",
          "type": "uint256"
        },
        {
          "indexed": false,
          "internalType": "uint256",
          "name": "slippage",
          "type": "uint256"
        },
        {
          "indexed": false,
          "internalType": "uint256",
          "name": "targetAmountReturned",
          "type": "uint256"
        }
      ],
      "name": "Deleverage",
      "type": "event"
    },
    {
      "anonymous": false,
      "inputs": [
        {
          "indexed": true,
          "internalType": "address",
          "name": "targetToken",
          "type": "address"
        },
        {
          "indexed": true,
          "internalType": "address",
          "name": "pairToken",
          "type": "address"
        },
        {
          "indexed": false,
          "internalType": "address",
          "name": "user",
          "type": "address"
        },
        {
          "indexed": false,
          "internalType": "uint256",
          "name": "targetAmount",
          "type": "uint256"
        },
        {
          "indexed": false,
          "internalType": "uint256",
          "name": "borrowRateMode",
          "type": "uint256"
        },
        {
          "indexed": false,
          "internalType": "uint256",
          "name": "slippage",
          "type": "uint256"
        },
        {
          "indexed": false,
          "internalType": "uint256",
          "name": "pairAmountReturned",
          "type": "uint256"
        }
      ],
      "name": "Leverage",
      "type": "event"
    },
    {
      "stateMutability": "nonpayable",
      "type": "fallback"
    },
    {
      "inputs": [],
      "name": "FLASH_LOAN_FEE_RATE",
      "outputs": [
        {
          "internalType": "uint256",
          "name": "",
          "type": "uint256"
        }
      ],
      "stateMutability": "view",
      "type": "function"
    },
    {
      "inputs": [],
      "name": "PROTOCOL_DATA_PROVIDER_ID",
      "outputs": [
        {
          "internalType": "bytes32",
          "name": "",
          "type": "bytes32"
        }
      ],
      "stateMutability": "view",
      "type": "function"
    },
    {
      "inputs": [
        {
          "components": [
            {
              "internalType": "address",
              "name": "tokenAddress",
              "type": "address"
            },
            {
              "internalType": "bool",
              "name": "borrowable",
              "type": "bool"
            },
            {
              "internalType": "bool",
              "name": "canBeCollateral",
              "type": "bool"
            },
            {
              "internalType": "uint256",
              "name": "liquidationThreshold",
              "type": "uint256"
            },
            {
              "internalType": "uint256",
              "name": "ltv",
              "type": "uint256"
            },
            {
              "internalType": "uint256",
              "name": "decimals",
              "type": "uint256"
            }
          ],
          "internalType": "struct IAaveLeveragedSwapManager.TokenInfo[]",
          "name": "_assets",
          "type": "tuple[]"
        },
        {
          "internalType": "uint256[]",
          "name": "_amounts",
          "type": "uint256[]"
        },
        {
          "components": [
            {
              "internalType": "address",
              "name": "tokenAddress",
              "type": "address"
            },
            {
              "internalType": "bool",
              "name": "borrowable",
              "type": "bool"
            },
            {
              "internalType": "bool",
              "name": "canBeCollateral",
              "type": "bool"
            },
            {
              "internalType": "uint256",
              "name": "liquidationThreshold",
              "type": "uint256"
            },
            {
              "internalType": "uint256",
              "name": "ltv",
              "type": "uint256"
            },
            {
              "internalType": "uint256",
              "name": "decimals",
              "type": "uint256"
            }
          ],
          "internalType": "struct IAaveLeveragedSwapManager.TokenInfo",
          "name": "_targetToken",
          "type": "tuple"
        },
        {
          "internalType": "uint256",
          "name": "_targetAmount",
          "type": "uint256"
        },
        {
          "internalType": "uint256",
          "name": "_rateMode",
          "type": "uint256"
        },
        {
          "internalType": "uint256",
          "name": "_slippage",
          "type": "uint256"
        },
        {
          "internalType": "bool",
          "name": "_feePaidByCollateral",
          "type": "bool"
        }
      ],
      "name": "checkAndCalculateRepayVars",
      "outputs": [
        {
          "components": [
            {
              "internalType": "uint256",
              "name": "loanETH",
              "type": "uint256"
            },
            {
              "internalType": "uint256",
              "name": "feeETH",
              "type": "uint256"
            },
            {
              "internalType": "uint256",
              "name": "totalCollateralReducedETH",
              "type": "uint256"
            },
            {
              "internalType": "uint256",
              "name": "flashLoanETH",
              "type": "uint256"
            },
            {
              "internalType": "uint256",
              "name": "currentHealthFactor",
              "type": "uint256"
            },
            {
              "internalType": "uint256",
              "name": "expectedHealthFactor",
              "type": "uint256"
            },
            {
              "internalType": "uint256[]",
              "name": "reducedCollateralValues",
              "type": "uint256[]"
            }
          ],
          "internalType": "struct AaveLeveragedSwapBase.RepayVars",
          "name": "repayVars",
          "type": "tuple"
        }
      ],
      "stateMutability": "view",
      "type": "function"
    },
    {
      "inputs": [
        {
          "components": [
            {
              "internalType": "address",
              "name": "tokenAddress",
              "type": "address"
            },
            {
              "internalType": "bool",
              "name": "borrowable",
              "type": "bool"
            },
            {
              "internalType": "bool",
              "name": "canBeCollateral",
              "type": "bool"
            },
            {
              "internalType": "uint256",
              "name": "liquidationThreshold",
              "type": "uint256"
            },
            {
              "internalType": "uint256",
              "name": "ltv",
              "type": "uint256"
            },
            {
              "internalType": "uint256",
              "name": "decimals",
              "type": "uint256"
            }
          ],
          "internalType": "struct IAaveLeveragedSwapManager.TokenInfo",
          "name": "_targetToken",
          "type": "tuple"
        },
        {
          "internalType": "uint256",
          "name": "_targetTokenAmount",
          "type": "uint256"
        },
        {
          "components": [
            {
              "internalType": "address",
              "name": "tokenAddress",
              "type": "address"
            },
            {
              "internalType": "bool",
              "name": "borrowable",
              "type": "bool"
            },
            {
              "internalType": "bool",
              "name": "canBeCollateral",
              "type": "bool"
            },
            {
              "internalType": "uint256",
              "name": "liquidationThreshold",
              "type": "uint256"
            },
            {
              "internalType": "uint256",
              "name": "ltv",
              "type": "uint256"
            },
            {
              "internalType": "uint256",
              "name": "decimals",
              "type": "uint256"
            }
          ],
          "internalType": "struct IAaveLeveragedSwapManager.TokenInfo",
          "name": "_pairToken",
          "type": "tuple"
        },
        {
          "internalType": "uint256",
          "name": "_slippage",
          "type": "uint256"
        },
        {
          "internalType": "bool",
          "name": "_feePaidByCollateral",
          "type": "bool"
        }
      ],
      "name": "checkAndCalculateSwapVars",
      "outputs": [
        {
          "components": [
            {
              "internalType": "uint256",
              "name": "loanETH",
              "type": "uint256"
            },
            {
              "internalType": "uint256",
              "name": "maxLoanETH",
              "type": "uint256"
            },
            {
              "internalType": "uint256",
              "name": "feeETH",
              "type": "uint256"
            },
            {
              "internalType": "uint256",
              "name": "flashLoanETH",
              "type": "uint256"
            },
            {
              "internalType": "uint256",
              "name": "currentHealthFactor",
              "type": "uint256"
            },
            {
              "internalType": "uint256",
              "name": "expectedHealthFactor",
              "type": "uint256"
            }
          ],
          "internalType": "struct AaveLeveragedSwapBase.SwapVars",
          "name": "swapVars",
          "type": "tuple"
        }
      ],
      "stateMutability": "view",
      "type": "function"
    },
    {
      "inputs": [
        {
          "internalType": "address[]",
          "name": "_assets",
          "type": "address[]"
        },
        {
          "internalType": "uint256[]",
          "name": "_amounts",
          "type": "uint256[]"
        },
        {
          "internalType": "uint256[]",
          "name": "_premiums",
          "type": "uint256[]"
        },
        {
          "internalType": "address",
          "name": "_initiator",
          "type": "address"
        },
        {
          "internalType": "bytes",
          "name": "",
          "type": "bytes"
        }
      ],
      "name": "executeOperation",
      "outputs": [
        {
          "internalType": "bool",
          "name": "",
          "type": "bool"
        }
      ],
      "stateMutability": "nonpayable",
      "type": "function"
    },
    {
      "inputs": [],
      "name": "getAssetPositions",
      "outputs": [
        {
          "components": [
            {
              "internalType": "string",
              "name": "symbol",
              "type": "string"
            },
            {
              "internalType": "address",
              "name": "token",
              "type": "address"
            },
            {
              "internalType": "uint256",
              "name": "aTokenBalance",
              "type": "uint256"
            },
            {
              "internalType": "uint256",
              "name": "stableDebt",
              "type": "uint256"
            },
            {
              "internalType": "uint256",
              "name": "variableDebt",
              "type": "uint256"
            },
            {
              "internalType": "uint256",
              "name": "principalStableDebt",
              "type": "uint256"
            },
            {
              "internalType": "uint256",
              "name": "scaledVariableDebt",
              "type": "uint256"
            },
            {
              "internalType": "bool",
              "name": "usedAsCollateral",
              "type": "bool"
            },
            {
              "internalType": "bool",
              "name": "borrowable",
              "type": "bool"
            },
            {
              "internalType": "bool",
              "name": "canBeCollateral",
              "type": "bool"
            }
          ],
          "internalType": "struct IAaveLeveragedSwapManager.Position[]",
          "name": "positions",
          "type": "tuple[]"
        }
      ],
      "stateMutability": "view",
      "type": "function"
    },
    {
      "inputs": [
        {
          "internalType": "address",
          "name": "_token",
          "type": "address"
        }
      ],
      "name": "getTokenInfo",
      "outputs": [
        {
          "components": [
            {
              "internalType": "address",
              "name": "tokenAddress",
              "type": "address"
            },
            {
              "internalType": "bool",
              "name": "borrowable",
              "type": "bool"
            },
            {
              "internalType": "bool",
              "name": "canBeCollateral",
              "type": "bool"
            },
            {
              "internalType": "uint256",
              "name": "liquidationThreshold",
              "type": "uint256"
            },
            {
              "internalType": "uint256",
              "name": "ltv",
              "type": "uint256"
            },
            {
              "internalType": "uint256",
              "name": "decimals",
              "type": "uint256"
            }
          ],
          "internalType": "struct IAaveLeveragedSwapManager.TokenInfo",
          "name": "tokenInfo",
          "type": "tuple"
        }
      ],
      "stateMutability": "view",
      "type": "function"
    },
    {
      "inputs": [
        {
          "internalType": "address",
          "name": "_addressProvider",
          "type": "address"
        },
        {
          "internalType": "address",
          "name": "_sushiRouter",
          "type": "address"
        },
        {
          "internalType": "address",
          "name": "_nativeETH",
          "type": "address"
        }
      ],
      "name": "initialize",
      "outputs": [],
      "stateMutability": "nonpayable",
      "type": "function"
    },
    {
      "inputs": [
        {
          "components": [
            {
              "internalType": "address",
              "name": "tokenAddress",
              "type": "address"
            },
            {
              "internalType": "bool",
              "name": "borrowable",
              "type": "bool"
            },
            {
              "internalType": "bool",
              "name": "canBeCollateral",
              "type": "bool"
            },
            {
              "internalType": "uint256",
              "name": "liquidationThreshold",
              "type": "uint256"
            },
            {
              "internalType": "uint256",
              "name": "ltv",
              "type": "uint256"
            },
            {
              "internalType": "uint256",
              "name": "decimals",
              "type": "uint256"
            }
          ],
          "internalType": "struct IAaveLeveragedSwapManager.TokenInfo[]",
          "name": "_collaterals",
          "type": "tuple[]"
        },
        {
          "internalType": "uint256[]",
          "name": "_collateralAmounts",
          "type": "uint256[]"
        },
        {
          "components": [
            {
              "internalType": "address",
              "name": "tokenAddress",
              "type": "address"
            },
            {
              "internalType": "bool",
              "name": "borrowable",
              "type": "bool"
            },
            {
              "internalType": "bool",
              "name": "canBeCollateral",
              "type": "bool"
            },
            {
              "internalType": "uint256",
              "name": "liquidationThreshold",
              "type": "uint256"
            },
            {
              "internalType": "uint256",
              "name": "ltv",
              "type": "uint256"
            },
            {
              "internalType": "uint256",
              "name": "decimals",
              "type": "uint256"
            }
          ],
          "internalType": "struct IAaveLeveragedSwapManager.TokenInfo",
          "name": "_targetToken",
          "type": "tuple"
        },
        {
          "internalType": "uint256",
          "name": "_targetAmount",
          "type": "uint256"
        },
        {
          "internalType": "uint256",
          "name": "_rateMode",
          "type": "uint256"
        },
        {
          "internalType": "uint256",
          "name": "_slippage",
          "type": "uint256"
        }
      ],
      "name": "repayDebt",
      "outputs": [],
      "stateMutability": "payable",
      "type": "function"
    },
    {
      "inputs": [
        {
          "components": [
            {
              "internalType": "address",
              "name": "tokenAddress",
              "type": "address"
            },
            {
              "internalType": "bool",
              "name": "borrowable",
              "type": "bool"
            },
            {
              "internalType": "bool",
              "name": "canBeCollateral",
              "type": "bool"
            },
            {
              "internalType": "uint256",
              "name": "liquidationThreshold",
              "type": "uint256"
            },
            {
              "internalType": "uint256",
              "name": "ltv",
              "type": "uint256"
            },
            {
              "internalType": "uint256",
              "name": "decimals",
              "type": "uint256"
            }
          ],
          "internalType": "struct IAaveLeveragedSwapManager.TokenInfo",
          "name": "_targetToken",
          "type": "tuple"
        },
        {
          "internalType": "uint256",
          "name": "_targetAmount",
          "type": "uint256"
        },
        {
          "components": [
            {
              "internalType": "address",
              "name": "tokenAddress",
              "type": "address"
            },
            {
              "internalType": "bool",
              "name": "borrowable",
              "type": "bool"
            },
            {
              "internalType": "bool",
              "name": "canBeCollateral",
              "type": "bool"
            },
            {
              "internalType": "uint256",
              "name": "liquidationThreshold",
              "type": "uint256"
            },
            {
              "internalType": "uint256",
              "name": "ltv",
              "type": "uint256"
            },
            {
              "internalType": "uint256",
              "name": "decimals",
              "type": "uint256"
            }
          ],
          "internalType": "struct IAaveLeveragedSwapManager.TokenInfo",
          "name": "_pairToken",
          "type": "tuple"
        },
        {
          "internalType": "uint256",
          "name": "_rateMode",
          "type": "uint256"
        },
        {
          "internalType": "uint256",
          "name": "_slippage",
          "type": "uint256"
        }
      ],
      "name": "swapPreapprovedAssets",
      "outputs": [],
      "stateMutability": "payable",
      "type": "function"
    },
    {
      "inputs": [],
      "name": "vars",
      "outputs": [
        {
          "internalType": "uint256",
          "name": "targetTokenAmount",
          "type": "uint256"
        },
        {
          "internalType": "uint256",
          "name": "pairTokenAmount",
          "type": "uint256"
        },
        {
          "internalType": "uint256",
          "name": "feeTokenAmount",
          "type": "uint256"
        },
        {
          "internalType": "uint256",
          "name": "loanETH",
          "type": "uint256"
        },
        {
          "internalType": "uint256",
          "name": "feeETH",
          "type": "uint256"
        },
        {
          "internalType": "uint256",
          "name": "slippage",
          "type": "uint256"
        },
        {
          "internalType": "uint256",
          "name": "borrowRateMode",
          "type": "uint256"
        },
        {
          "components": [
            {
              "internalType": "address",
              "name": "tokenAddress",
              "type": "address"
            },
            {
              "internalType": "bool",
              "name": "borrowable",
              "type": "bool"
            },
            {
              "internalType": "bool",
              "name": "canBeCollateral",
              "type": "bool"
            },
            {
              "internalType": "uint256",
              "name": "liquidationThreshold",
              "type": "uint256"
            },
            {
              "internalType": "uint256",
              "name": "ltv",
              "type": "uint256"
            },
            {
              "internalType": "uint256",
              "name": "decimals",
              "type": "uint256"
            }
          ],
          "internalType": "struct IAaveLeveragedSwapManager.TokenInfo",
          "name": "targetToken",
          "type": "tuple"
        },
        {
          "components": [
            {
              "internalType": "address",
              "name": "tokenAddress",
              "type": "address"
            },
            {
              "internalType": "bool",
              "name": "borrowable",
              "type": "bool"
            },
            {
              "internalType": "bool",
              "name": "canBeCollateral",
              "type": "bool"
            },
            {
              "internalType": "uint256",
              "name": "liquidationThreshold",
              "type": "uint256"
            },
            {
              "internalType": "uint256",
              "name": "ltv",
              "type": "uint256"
            },
            {
              "internalType": "uint256",
              "name": "decimals",
              "type": "uint256"
            }
          ],
          "internalType": "struct IAaveLeveragedSwapManager.TokenInfo",
          "name": "pairToken",
          "type": "tuple"
        },
        {
          "internalType": "address",
          "name": "user",
          "type": "address"
        }
      ],
      "stateMutability": "view",
      "type": "function"
    }
  ],
  "bytecode": "0x608060405234801561001057600080fd5b5060016019556147fa806100256000396000f3fe60806040526004361061009c5760003560e01c80638b558009116100645780638b558009146102c75780638ee92519146102dc578063920ab1d7146102f1578063920f5c841461031e578063c0c53b8b1461034e578063ee0599a91461036e5761009c565b80630e5376d6146100e3578063119d6105146101e65780631f69565f1461020c5780632e91438e14610239578063836606531461025b575b3480156100a857600080fd5b50604080518082018252600381526245323160e81b6020820152905162461bcd60e51b81526100da9190600401614322565b60405180910390fd5b3480156100ef57600080fd5b50600954600a54600b54600c54600d54600e54600f546040805160c080820183526010546001600160a01b038082168452600160a01b80830460ff9081161515602080880191909152600160a81b9485900482161515878901526011546060808901919091526012546080808a019190915260135460a0808b01919091528a519889018b526014548088168a529586048516151593890193909352959093049091161515968501969096526015549084015260165491830191909152601754938201939093526018546101c79a99989796959493168a565b6040516101dd9a9998979695949392919061440c565b60405180910390f35b3480156101f257600080fd5b506101fe600160f81b81565b6040519081526020016101dd565b34801561021857600080fd5b5061022c61022736600461389b565b610381565b6040516101dd919061438d565b34801561024557600080fd5b5061024e6104ab565b6040516101dd9190614251565b34801561026757600080fd5b5061027b610276366004613e8e565b6107d0565b6040516101dd9190600060c082019050825182526020830151602083015260408301516040830152606083015160608301526080830151608083015260a083015160a083015292915050565b6102da6102d5366004613eee565b610ac1565b005b3480156102e857600080fd5b506101fe600981565b3480156102fd57600080fd5b5061031161030c366004613c9b565b610ce6565b6040516101dd9190614335565b34801561032a57600080fd5b5061033e610339366004613962565b61105b565b60405190151581526020016101dd565b34801561035a57600080fd5b506102da6103693660046138d5565b6112d1565b6102da61037c366004613bce565b611577565b6040805160c081018252600060208201819052818301819052606082018190526080820181905260a082018190526001600160a01b038481168084526002549451633e15014160e01b8152600481019190915292939192839290911690633e150141906024016101406040518083038186803b15801561040057600080fd5b505afa158015610414573d6000803e3d6000fd5b505050506040513d601f19601f820116820180604052508101906104389190613f5a565b92151560208d01529215801560408d0181905260608d019790975260808c01979097525060a08a0196909652965093945090925061047e9050575081801561047e575080155b151560408401526020830151801561049c575081801561049c575080155b15156020840152509092915050565b60606000600260009054906101000a90046001600160a01b03166001600160a01b031663b316ff896040518163ffffffff1660e01b815260040160006040518083038186803b1580156104fd57600080fd5b505afa158015610511573d6000803e3d6000fd5b505050506040513d6000823e601f3d908101601f191682016040526105399190810190613a66565b905080516001600160401b03811115610554576105546146e6565b6040519080825280602002602001820160405280156105ea57816020015b6105d76040518061014001604052806060815260200160006001600160a01b0316815260200160008152602001600081526020016000815260200160008152602001600081526020016000151581526020016000151581526020016000151581525090565b8152602001906001900390816105725790505b50915060005b81518110156107cb576000610621838381518110610610576106106146d0565b602002602001015160200151610381565b9050600080600080600080600260009054906101000a90046001600160a01b03166001600160a01b03166328dd2d018a8a81518110610662576106626146d0565b60209081029190910181015101516040516001600160e01b031960e084901b1681526001600160a01b0390911660048201523360248201526044016101206040518083038186803b1580156106b657600080fd5b505afa1580156106ca573d6000803e3d6000fd5b505050506040513d601f19601f820116820180604052508101906106ee919061404b565b9850505050955095509550955095506040518061014001604052808a8a8151811061071b5761071b6146d0565b60200260200101516000015181526020018a8a8151811061073e5761073e6146d0565b6020026020010151602001516001600160a01b031681526020018781526020018681526020018581526020018481526020018381526020018215158152602001886020015115158152602001886040015115158152508a89815181106107a6576107a66146d0565b60200260200101819052505050505050505080806107c390614673565b9150506105f0565b505090565b6108096040518060c001604052806000815260200160008152602001600081526020016000815260200160008152602001600081525090565b60408085015181518083019092526002825261453360f01b60208301526108435760405162461bcd60e51b81526004016100da9190614322565b50600154604051632fe4a15f60e21b81523360048201526000918291829182916001600160a01b039091169063bf92857c9060240160c06040518083038186803b15801561089057600080fd5b505afa1580156108a4573d6000803e3d6000fd5b505050506040513d601f19601f820116820180604052508101906108c89190614001565b60808b0152506020808f0151604080518082019091526002815261114d60f21b92810192909252949850909650909450909250906109195760405162461bcd60e51b81526004016100da9190614322565b506003548a5160405163b3596f0760e01b81526001600160a01b0391821660048201526109a4928c92169063b3596f07906024015b60206040518083038186803b15801561096657600080fd5b505afa15801561097a573d6000803e3d6000fd5b505050506040513d601f19601f8201168201806040525081019061099e9190613f41565b906118a9565b85526109bd6109b5886127106145df565b865190611966565b606086015260006109de6109d3896127106145df565b60808b015190611966565b6109ea906127106145df565b90508615610a44576000610a01600961271061449b565b6060880151909150610a1390826119f0565b6060880152610a2360098361449b565b9150610a3982610a338684611966565b906119f0565b602088015250610a54565b610a4e83826119f0565b60208701525b6060860151610a64906009611966565b60408701526000610a758686611966565b6060808c015190890151610a8891611966565b610a92919061449b565b8751909150610aac90610aa5908561449b565b8290611abc565b60a088015250949a9950505050505050505050565b60026019541415610b145760405162461bcd60e51b815260206004820152601f60248201527f5265656e7472616e637947756172643a207265656e7472616e742063616c6c0060448201526064016100da565b6002601955601880546001600160a01b031916331790558451601080546020808901516040808b01511515600160a81b90810260ff60a81b19931515600160a01b9081026001600160a81b03199788166001600160a01b039a8b1617178516919091179096556060808d01516011556080808e015160125560a0808f015160135560098e90558c5160148054988f0151968f01511515909502951515909902969097169790981696909617939093179091161790559085015160155590840151601655830151601755600f829055600e8190556000610bf78686868534156107d0565b905080602001518160000151111560405180604001604052806002815260200161453160f01b81525090610c3e5760405162461bcd60e51b81526004016100da9190614322565b508051600c556040810151600d5560608101513415610c6057610c6034611b78565b6040805160c0810182526014546001600160a01b038116825260ff600160a01b8204811615156020840152600160a81b909104161515918101919091526015546060820152601654608082015260175460a0820152610cc0908290611c14565b600a8190558551610cd091611c9f565b610cd8611dfa565b505060016019555050505050565b610d266040518060e00160405280600081526020016000815260200160008152602001600081526020016000815260200160008152602001606081525090565b610d3286868633611eae565b6060820152600154604051632fe4a15f60e21b8152336004820152600091829182916001600160a01b03169063bf92857c9060240160c06040518083038186803b158015610d7f57600080fd5b505afa158015610d93573d6000803e3d6000fd5b505050506040513d601f19601f82011682018060405250810190610db79190614001565b60808a0152508d518f51604080518082019091526002815261453760f01b60208201529598509196509294509091149050610e055760405162461bcd60e51b81526004016100da9190614322565b508a516001600160401b03811115610e1f57610e1f6146e6565b604051908082528060200260200182016040528015610e48578160200160208202803683370190505b5060c0850152610e588383611966565b925060005b8b51811015610fcd57600080610ea68e8481518110610e7e57610e7e6146d0565b60200260200101518e8581518110610e9857610e986146d0565b602002602001015133612060565b91509150808015610ed157508d8381518110610ec457610ec46146d0565b6020026020010151604001515b6040518060400160405280600281526020016108a760f31b81525090610f0a5760405162461bcd60e51b81526004016100da9190614322565b50818760c001518481518110610f2257610f226146d0565b6020026020010181815250508187604001818151610f40919061449b565b9052508d51610f76908f9085908110610f5b57610f5b6146d0565b6020026020010151606001518361196690919063ffffffff16565b91508186116040518060400160405280600381526020016204531360ec1b81525090610fb55760405162461bcd60e51b81526004016100da9190614322565b50509093039280610fc581614673565b915050610e5d565b506060840151610fde906009611966565b602085015261101b610ff2876127106145df565b86611010578560200151866060015161100b919061449b565b610a33565b8560600151906119f0565b8452606084015181116110355760001960a085015261104d565b60608401516110479084908303611abc565b60a08501525b505050979650505050505050565b60015460408051808201909152600381526222991960e91b60208201526000916001600160a01b031633146110a35760405162461bcd60e51b81526004016100da9190614322565b506001891480156110bc57506001600160a01b03841630145b6110c8576110c861468e565b6014546001600160a01b03168a8a6000816110e5576110e56146d0565b90506020020160208101906110fa919061389b565b6001600160a01b031614156111c857600a54888860008161111d5761111d6146d0565b90506020020135146111315761113161468e565b6040805160c0810182526014546001600160a01b038116825260ff600160a01b8204811615156020840152600160a81b909104161515918101919091526015546060820152601654608082015260175460a08201526111c190898960008161119b5761119b6146d0565b90506020020135888860008181106111b5576111b56146d0565b9050602002013561217c565b90506112c4565b6010546001600160a01b03168a8a6000816111e5576111e56146d0565b90506020020160208101906111fa919061389b565b6001600160a01b03161480156112285750600954888860008161121f5761121f6146d0565b90506020020135145b6112345761123461468e565b6040805160c0810182526010546001600160a01b038116825260ff600160a01b8204811615156020840152600160a81b909104161515918101919091526011546060820152601254608082015260135460a08201526111c190898960008161129e5761129e6146d0565b90506020020135888860008181106112b8576112b86146d0565b9050602002013561261a565b9998505050505050505050565b601a54610100900460ff166112ec57601a5460ff16156112f0565b303b155b6113535760405162461bcd60e51b815260206004820152602e60248201527f496e697469616c697a61626c653a20636f6e747261637420697320616c72656160448201526d191e481a5b9a5d1a585b1a5e995960921b60648201526084016100da565b601a54610100900460ff1615801561137557601a805461ffff19166101011790555b600080546001600160a01b0319166001600160a01b03861690811790915560408051630261bf8b60e01b81529051630261bf8b91600480820192602092909190829003018186803b1580156113c957600080fd5b505afa1580156113dd573d6000803e3d6000fd5b505050506040513d601f19601f8201168201806040525081019061140191906138b8565b600180546001600160a01b0319166001600160a01b039283161790556000546040516321f8a72160e01b8152600160f81b60048201529116906321f8a7219060240160206040518083038186803b15801561145b57600080fd5b505afa15801561146f573d6000803e3d6000fd5b505050506040513d601f19601f8201168201806040525081019061149391906138b8565b600280546001600160a01b0319166001600160a01b0392831617905560005460408051631f94a27560e31b81529051919092169163fca513a8916004808301926020929190829003018186803b1580156114ec57600080fd5b505afa158015611500573d6000803e3d6000fd5b505050506040513d601f19601f8201168201806040525081019061152491906138b8565b600380546001600160a01b03199081166001600160a01b039384161790915560048054821686841617905560058054909116918416919091179055801561157157601a805461ff00191690555b50505050565b600260195414156115ca5760405162461bcd60e51b815260206004820152601f60248201527f5265656e7472616e637947756172643a207265656e7472616e742063616c6c0060448201526064016100da565b6002601955601880546001600160a01b031916331790558351601080546020808801516040808a01511515600160a81b0260ff60a81b19921515600160a01b026001600160a81b03199095166001600160a01b0397909716969096179390931716939093179091556060860151601155608086015160125560a08601516013556009859055600f849055600e8390558051898302810183019091528881526000916116ed91908b908b908190869085015b828210156116a75761169860c08302860136819003810190613e72565b8152602001906001019061167b565b50505050508888808060200260200160405190810160405280939291908181526020018383602002808284376000920191909152508a9250899150889050873415610ce6565b805160408083015181518083019092526002825261453960f01b602083015292935091101561172f5760405162461bcd60e51b81526004016100da9190614322565b50670de0b6b3a76400008160a001511160405180604001604052806002815260200161453560f01b815250906117785760405162461bcd60e51b81526004016100da9190614322565b5060c08101516020820151600d556117906006612a1f565b1561179d5761179d61468e565b60005b8981101561187457600060405180604001604052808b8b858181106117c7576117c76146d0565b9050602002013581526020018484815181106117e5576117e56146d0565b602002602001015181525090506118268c8c84818110611807576118076146d0565b61181d92602060c090920201908101915061389b565b60069083612a2a565b60405180604001604052806002815260200161229b60f11b8152509061185f5760405162461bcd60e51b81526004016100da9190614322565b5050808061186c90614673565b9150506117a0565b5034156118845761188434611b78565b85516118909086611c9f565b611898611dfa565b505060016019555050505050505050565b60008215806118b6575081155b156118c357506000611960565b816118d76002670de0b6b3a76400006144b3565b6118e3906000196145df565b6118ed91906144b3565b8311156040518060400160405280600381526020016208a62760eb1b8152509061192a5760405162461bcd60e51b81526004016100da9190614322565b50670de0b6b3a764000061193f6002826144b3565b61194984866145c0565b611953919061449b565b61195d91906144b3565b90505b92915050565b6000821580611973575081155b1561198057506000611960565b8161198e60026127106144b3565b61199a906000196145df565b6119a491906144b3565b8311156040518060400160405280600381526020016208a62760eb1b815250906119e15760405162461bcd60e51b81526004016100da9190614322565b5061271061193f6002826144b3565b60408051808201909152600381526204532360ec1b602082015260009082611a2b5760405162461bcd60e51b81526004016100da9190614322565b506000611a396002846144b3565b9050612710611a4a826000196145df565b611a5491906144b3565b8411156040518060400160405280600381526020016208a62760eb1b81525090611a915760405162461bcd60e51b81526004016100da9190614322565b508281611aa0612710876145c0565b611aaa919061449b565b611ab491906144b3565b949350505050565b60408051808201909152600381526204532360ec1b602082015260009082611af75760405162461bcd60e51b81526004016100da9190614322565b506000611b056002846144b3565b9050670de0b6b3a7640000611b1c826000196145df565b611b2691906144b3565b8411156040518060400160405280600381526020016208a62760eb1b81525090611b635760405162461bcd60e51b81526004016100da9190614322565b508281611aa0670de0b6b3a7640000876145c0565b600e54600090611bcd90611b8e906127106145df565b60035460055460405163b3596f0760e01b81526001600160a01b039182166004820152611bc7928792169063b3596f079060240161094e565b90611966565b600d5460408051808201909152600381526222989b60e91b6020820152919250821015611c0d5760405162461bcd60e51b81526004016100da9190614322565b5050600b55565b600354815160405163b3596f0760e01b81526001600160a01b03918216600482015260009261195d92169063b3596f079060240160206040518083038186803b158015611c6057600080fd5b505afa158015611c74573d6000803e3d6000fd5b505050506040513d601f19601f82011682018060405250810190611c989190613f41565b8490611abc565b604080516001808252818301909252600091602080830190803683370190505090508281600081518110611cd557611cd56146d0565b6001600160a01b0392909216602092830291909101909101526040805160018082528183019092526000918160200160208202803683370190505090508281600081518110611d2657611d266146d0565b6020908102919091010152604080516001808252818301909252600091816020016020820280368337019050509050600081600081518110611d6a57611d6a6146d0565b6020908102919091018101919091526001546040805192830181526000808452905163ab9c4b5d60e01b81526001600160a01b039092169263ab9c4b5d92611dc192309289928992899286929091906004016141d3565b600060405180830381600087803b158015611ddb57600080fd5b505af1158015611def573d6000803e3d6000fd5b505050505050505050565b60006009819055600a819055600b819055600c819055600d819055600e819055600f819055601080546001600160b01b0319908116909155601182905560128290556013829055601480549091169055601581905560168190556017819055601880546001600160a01b03191690555b611e746006612a1f565b811015611eab576000611e88600683612a5b565b509050611e96600682612acc565b50508080611ea390614673565b915050611e6a565b50565b60025484516040516328dd2d0160e01b81526001600160a01b0391821660048201528382166024820152600092839283929116906328dd2d01906044016101206040518083038186803b158015611f0457600080fd5b505afa158015611f18573d6000803e3d6000fd5b505050506040513d601f19601f82011682018060405250810190611f3c919061404b565b50505050505092509250508460011415611f915760408051808201909152600381526245313560e81b602082015282871115611f8b5760405162461bcd60e51b81526004016100da9190614322565b5061201d565b8460021415611fd557604080518082019091526003815262114c4d60ea1b602082015281871115611f8b5760405162461bcd60e51b81526004016100da9190614322565b60405162461bcd60e51b815260206004820152601960248201527f496e76616c696420626f72726f772072617465206d6f6465210000000000000060448201526064016100da565b600354875160405163b3596f0760e01b81526001600160a01b039182166004820152612055928992169063b3596f079060240161094e565b979650505050505050565b60025483516040516328dd2d0160e01b81526001600160a01b0391821660048201528382166024820152600092839283929116906328dd2d01906044016101206040518083038186803b1580156120b657600080fd5b505afa1580156120ca573d6000803e3d6000fd5b505050506040513d601f19601f820116820180604052508101906120ee919061404b565b60408051808201909152600381526245313160e81b6020820152909a50979850505050898610159350612138925050505760405162461bcd60e51b81526004016100da9190614322565b50600354865160405163b3596f0760e01b81526001600160a01b039182166004820152612171928892169063b3596f079060240161094e565b925050935093915050565b60015460a08401516000916121b4916001600160a01b03909116906121a2908690612af9565b86516001600160a01b03169190612ba8565b600154845160185460405163e8eda9df60e01b81526001600160a01b0392831660048201526024810187905290821660448201526000606482015291169063e8eda9df90608401600060405180830381600087803b15801561221557600080fd5b505af1158015612229573d6000803e3d6000fd5b5050600154601054600954600f5460185460405163a415bcad60e01b81526001600160a01b0394851660048201526024810193909352604483019190915260006064830152821660848201529116925063a415bcad915060a401600060405180830381600087803b15801561229d57600080fd5b505af19250505080156122ae575060015b612316576122ba6146fc565b806308c379a0141561230a57506122cf614718565b806122da575061230c565b6040805180820182526002815261229960f11b6020820152905162461bcd60e51b81526100da9190600401614322565b505b3d6000803e3d6000fd5b6040805160c080820183526010546001600160a01b03808216845260ff600160a01b80840482161515602080880191909152600160a81b9485900483161515878901526011546060808901919091526012546080808a019190915260135460a0808b01919091526009548b51998a018c526014549788168a52948704861615159389019390935295909404909216151596850196909652601554918401919091526016549183019190915260175490820152600e546000936124529392909161244c906123f2906123e9906127106145df565b600c5490611966565b6040805160c0810182526014546001600160a01b038116825260ff600160a01b8204811615156020840152600160a81b909104161515918101919091526015546060820152601654608082015260175460a0820152611c14565b30612d04565b600b549091501561251157600b546040805160c080820183526014546001600160a01b03811680845260ff600160a01b8304811615156020808701829052600160a81b909404909116151585870181905260155460608088018290526016546080808a0182905260175460a0808c01829052600d548d519b8c018e52988b52988a019690965299880193909352860152958401959095529082019390935261250493926124fe91611c14565b30612ea0565b61250e908261449b565b90505b600061251d848661449b565b90508082101561252f5761252f61468e565b60015460a087015182840391612568916001600160a01b0390911690612556908590612af9565b89516001600160a01b03169190612ba8565b60185460a088015161259b916001600160a01b031690612589908490612af9565b89516001600160a01b03169190613009565b8651601054601854600954600f54600e54604080516001600160a01b0395861681526020810194909452830191909152606082015260808101859052928116929116907f056c2bdaa16b494a4dd9d751792b7f9fd8c87a494cfa6ef5f6f8517fb7d655159060a00160405180910390a3600193505050505b9392505050565b60015460a0840151600091612640916001600160a01b03909116906121a2908690612af9565b6001548451600f5460185460405163573ade8160e01b81526001600160a01b0393841660048201526024810188905260448101929092528216606482015291169063573ade8190608401600060405180830381600087803b1580156126a457600080fd5b505af11580156126b8573d6000803e3d6000fd5b5060009250829150505b6126cc6006612a1f565b81101561288f576000806126e1600684612a5b565b9150915060006126f083610381565b905061270f8183600060200201516018546001600160a01b0316613039565b6001548251604051631a4ca37b60e21b81526001600160a01b03868116600483015260248201929092523060448201529116906369328dec90606401600060405180830381600087803b15801561276557600080fd5b505af1158015612779573d6000803e3d6000fd5b5050505061286d8183600060028110612794576127946146d0565b602090810291909101516040805160c0810182526010546001600160a01b038116825260ff600160a01b82048116151595830195909552600160a81b90049093161515908301526011546060830152601254608083015260135460a0830152600e5490919061244c90612809906127106145df565b6020888101516040805160c0810182526010546001600160a01b038116825260ff600160a01b82048116151595830195909552600160a81b90049093161515908301526011546060830152601254608083015260135460a0830152611bc791611c14565b612877908661449b565b9450505050808061288790614673565b9150506126c2565b50600b541561294657600b546040805160c080820183526010546001600160a01b03811680845260ff600160a01b8304811615156020808701829052600160a81b909404909116151585870181905260115460608088018290526012546080808a0182905260135460a0808c01829052600d548d519b8c018e52988b52988a019690965299880193909352860152958401959095529082019390935261293993926124fe91611c14565b612943908261449b565b90505b6000612952848661449b565b9050808210156129645761296461468e565b60015460a08701518284039161298b916001600160a01b0390911690612556908590612af9565b60185460a08801516129ac916001600160a01b031690612589908490612af9565b8651601854600f54600e54604080516001600160a01b039485168152602081018c9052908101929092526060820152608081018490529116907fc1a24d9511ed1caed23b3cac9e41126eb5b30d008463b83d4c7df4bf4296c62a9060a00160405180910390a25060019695505050505050565b600061196082613201565b6001600160a01b0382166000908152600280850160205260408220612a509184906136c0565b50611ab4848461320b565b6000612a656136fe565b6000612a718585613220565b6001600160a01b03811660009081526002878101602052604091829020825180840193849052939450849390929091839182845b815481526020019060010190808311612aa5575050505050905092509250505b9250929050565b6001600160a01b0381166000908152600283016020526040812081815560010181905561195d838361322c565b60008060128310612b8857612b0f6012846145df565b612b1a90600a614518565b612b2490856145c0565b905083612b326012856145df565b612b3d90600a614518565b612b4790836144b3565b146040518060400160405280600381526020016208a62760eb1b81525090612b825760405162461bcd60e51b81526004016100da9190614322565b5061195d565b612b938360126145df565b612b9e90600a614518565b611ab490856144b3565b801580612c315750604051636eb1769f60e11b81523060048201526001600160a01b03838116602483015284169063dd62ed3e9060440160206040518083038186803b158015612bf757600080fd5b505afa158015612c0b573d6000803e3d6000fd5b505050506040513d601f19601f82011682018060405250810190612c2f9190613f41565b155b612c9c5760405162461bcd60e51b815260206004820152603660248201527f5361666545524332303a20617070726f76652066726f6d206e6f6e2d7a65726f60448201527520746f206e6f6e2d7a65726f20616c6c6f77616e636560501b60648201526084016100da565b6040516001600160a01b038316602482015260448101829052612cff90849063095ea7b360e01b906064015b60408051601f198184030181529190526020810180516001600160e01b03166001600160e01b031990931692909217909152613241565b505050565b825185516000916001600160a01b0391821691161415612d25575083612e97565b60a0860151612d35908690612af9565b9450612d4e8460a0015184612af990919063ffffffff16565b6004548751919450612d6d916001600160a01b03908116911687612ba8565b600454865185516001600160a01b03909216916338ed1739918891600191612d9491613313565b86426040518663ffffffff1660e01b8152600401612db69594939291906143d0565b600060405180830381600087803b158015612dd057600080fd5b505af1925050508015612e0557506040513d6000823e601f3d908101601f19168201604052612e029190810190613db4565b60015b612e6257612e116146fc565b806308c379a0141561230a5750612e26614718565b80612e31575061230c565b604080518082018252600381526245313760e81b6020820152905162461bcd60e51b81526100da9190600401614322565b612e938560a0015182600181518110612e7d57612e7d6146d0565b60200260200101516133a190919063ffffffff16565b9150505b95945050505050565b82516005546000916001600160a01b0391821691161415612f2c57600560009054906101000a90046001600160a01b03166001600160a01b031663d0e30db0866040518263ffffffff1660e01b81526004016000604051808303818588803b158015612f0b57600080fd5b505af1158015612f1f573d6000803e3d6000fd5b5050505050849050611ab4565b60a0840151612f3c908490612af9565b60045460055486519295506001600160a01b0391821692637ff36ab59289928892612f6a9290911690613313565b86426040518663ffffffff1660e01b8152600401612f8b949392919061439b565b6000604051808303818588803b158015612fa457600080fd5b505af193505050508015612fda57506040513d6000823e601f3d908101601f19168201604052612fd79190810190613db4565b60015b612fe657612e116146fc565b6130018560a0015182600181518110612e7d57612e7d6146d0565b915050611ab4565b6040516001600160a01b038316602482015260448101829052612cff90849063a9059cbb60e01b90606401612cc8565b60025483516040516334924edb60e21b81526001600160a01b039182166004820152600092919091169063d2493b6c9060240160606040518083038186803b15801561308457600080fd5b505afa158015613098573d6000803e3d6000fd5b505050506040513d601f19601f820116820180604052508101906130bc9190613920565b50509050806001600160a01b03166323b872dd83306130e88860a0015188612af990919063ffffffff16565b6040516001600160e01b031960e086901b1681526001600160a01b0393841660048201529290911660248301526044820152606401602060405180830381600087803b15801561313757600080fd5b505af1925050508015613167575060408051601f3d908101601f1916820190925261316491810190613e55565b60015b6131c4576131736146fc565b806308c379a0141561230a5750613188614718565b80613193575061230c565b604080518082018252600381526222989960e91b6020820152905162461bcd60e51b81526100da9190600401614322565b806131fa57604080518082018252600381526245313360e81b6020820152905162461bcd60e51b81526100da9190600401614322565b5050505050565b6000611960825490565b600061195d836001600160a01b038416613459565b600061195d83836134a8565b600061195d836001600160a01b0384166134d2565b6000613296826040518060400160405280602081526020017f5361666545524332303a206c6f772d6c6576656c2063616c6c206661696c6564815250856001600160a01b03166135c59092919063ffffffff16565b805190915015612cff57808060200190518101906132b49190613e55565b612cff5760405162461bcd60e51b815260206004820152602a60248201527f5361666545524332303a204552433230206f7065726174696f6e20646964206e6044820152691bdd081cdd58d8d9595960b21b60648201526084016100da565b60408051600280825260608083018452926020830190803683370190505090508281600081518110613347576133476146d0565b60200260200101906001600160a01b031690816001600160a01b031681525050818160018151811061337b5761337b6146d0565b60200260200101906001600160a01b031690816001600160a01b03168152505092915050565b600080601283106133d3576133b76012846145df565b6133c290600a614518565b6133cc90856144b3565b905061195d565b6133de8360126145df565b6133e990600a614518565b6133f390856145c0565b9050836134016012856145df565b61340c90600a614518565b61341690836144b3565b146040518060400160405280600381526020016208a62760eb1b815250906134515760405162461bcd60e51b81526004016100da9190614322565b509392505050565b60008181526001830160205260408120546134a057508154600181810184556000848152602080822090930184905584548482528286019093526040902091909155611960565b506000611960565b60008260000182815481106134bf576134bf6146d0565b9060005260206000200154905092915050565b600081815260018301602052604081205480156135bb5760006134f66001836145df565b855490915060009061350a906001906145df565b905081811461356f57600086600001828154811061352a5761352a6146d0565b906000526020600020015490508087600001848154811061354d5761354d6146d0565b6000918252602080832090910192909255918252600188019052604090208390555b8554869080613580576135806146ba565b600190038181906000526020600020016000905590558560010160008681526020019081526020016000206000905560019350505050611960565b6000915050611960565b6060611ab4848460008585843b61361e5760405162461bcd60e51b815260206004820152601d60248201527f416464726573733a2063616c6c20746f206e6f6e2d636f6e747261637400000060448201526064016100da565b600080866001600160a01b0316858760405161363a91906141b7565b60006040518083038185875af1925050503d8060008114613677576040519150601f19603f3d011682016040523d82523d6000602084013e61367c565b606091505b509150915061205582828660608315613696575081612613565b8251156136a65782518084602001fd5b8160405162461bcd60e51b81526004016100da9190614322565b82600281019282156136ee579160200282015b828111156136ee5782518255916020019190600101906136d3565b506136fa92915061371c565b5090565b60405180604001604052806002906020820280368337509192915050565b5b808211156136fa576000815560010161371d565b805161373c816147a1565b919050565b60008083601f84011261375357600080fd5b5081356001600160401b0381111561376a57600080fd5b6020830191508360208260051b8501011115612ac557600080fd5b600082601f83011261379657600080fd5b813560206137a382614478565b6040516137b08282614647565b8381528281019150858301600585901b870184018810156137d057600080fd5b60005b858110156137ef578135845292840192908401906001016137d3565b5090979650505050505050565b803561373c816147b6565b600060c0828403121561381957600080fd5b60405160c081018181106001600160401b038211171561383b5761383b6146e6565b604052905080823561384c816147a1565b8152602083013561385c816147b6565b6020820152604083013561386f816147b6565b80604083015250606083013560608201526080830135608082015260a083013560a08201525092915050565b6000602082840312156138ad57600080fd5b813561195d816147a1565b6000602082840312156138ca57600080fd5b815161195d816147a1565b6000806000606084860312156138ea57600080fd5b83356138f5816147a1565b92506020840135613905816147a1565b91506040840135613915816147a1565b809150509250925092565b60008060006060848603121561393557600080fd5b8351613940816147a1565b6020850151909350613951816147a1565b6040850151909250613915816147a1565b600080600080600080600080600060a08a8c03121561398057600080fd5b89356001600160401b038082111561399757600080fd5b6139a38d838e01613741565b909b50995060208c01359150808211156139bc57600080fd5b6139c88d838e01613741565b909950975060408c01359150808211156139e157600080fd5b6139ed8d838e01613741565b909750955060608c01359150613a02826147a1565b90935060808b01359080821115613a1857600080fd5b818c0191508c601f830112613a2c57600080fd5b813581811115613a3b57600080fd5b8d6020828501011115613a4d57600080fd5b6020830194508093505050509295985092959850929598565b600060208284031215613a7857600080fd5b81516001600160401b0380821115613a8f57600080fd5b818401915084601f830112613aa357600080fd5b8151613aae81614478565b604051613abb8282614647565b809150828152602081019150602085018860208560051b8801011115613ae057600080fd5b60005b84811015613bc057815186811115613afa57600080fd5b8701601f196040828d0382011215613b1157600080fd5b604051613b1d81614622565b602083015189811115613b2f57600080fd5b8301603f81018e13613b4057600080fd5b60208101518a811115613b5557613b556146e6565b604051613b6a602086601f8501160182614647565b8181528f6040838501011115613b7f57600080fd5b613b908260208301604086016145f6565b835250613ba1905060408401613731565b6020828101919091529087529586019593909301925050600101613ae3565b509098975050505050505050565b600080600080600080600080610160898b031215613beb57600080fd5b88356001600160401b0380821115613c0257600080fd5b818b0191508b601f830112613c1657600080fd5b813581811115613c2557600080fd5b8c602060c083028501011115613c3a57600080fd5b60209283019a509850908a01359080821115613c5557600080fd5b50613c628b828c01613741565b9097509550613c7690508a60408b01613807565b979a969950949793969561010085013595506101208501359461014001359350915050565b6000806000806000806000610180888a031215613cb757600080fd5b87356001600160401b0380821115613cce57600080fd5b818a0191508a601f830112613ce257600080fd5b8135613ced81614478565b604051613cfa8282614647565b828152602080820192508581019060c085028701018f1015613d1b57600080fd5b600095505b83861015613d4957613d328f82613807565b83526001959095019460209092019160c001613d20565b509a50505060208a0135915080821115613d6257600080fd5b50613d6f8a828b01613785565b965050613d7f8960408a01613807565b9450610100880135935061012088013592506101408801359150613da661016089016137fc565b905092959891949750929550565b60006020808385031215613dc757600080fd5b82516001600160401b03811115613ddd57600080fd5b8301601f81018513613dee57600080fd5b8051613df981614478565b604051613e068282614647565b8281528481019150838501600584901b85018601891015613e2657600080fd5b600094505b83851015613e49578051835260019490940193918501918501613e2b565b50979650505050505050565b600060208284031215613e6757600080fd5b815161195d816147b6565b600060c08284031215613e8457600080fd5b61195d8383613807565b60008060008060006101e08688031215613ea757600080fd5b613eb18787613807565b945060c08601359350613ec78760e08801613807565b92506101a086013591506101c0860135613ee0816147b6565b809150509295509295909350565b60008060008060006101e08688031215613f0757600080fd5b613f118787613807565b945060c08601359350613f278760e08801613807565b949793965093946101a081013594506101c0013592915050565b600060208284031215613f5357600080fd5b5051919050565b6000806000806000806000806000806101408b8d031215613f7a57600080fd5b8a51995060208b0151985060408b0151975060608b0151965060808b0151955060a08b0151613fa8816147b6565b60c08c0151909550613fb9816147b6565b60e08c0151909450613fca816147b6565b6101008c0151909350613fdc816147b6565b6101208c0151909250613fee816147b6565b809150509295989b9194979a5092959850565b60008060008060008060c0878903121561401a57600080fd5b865195506020870151945060408701519350606087015192506080870151915060a087015190509295509295509295565b60008060008060008060008060006101208a8c03121561406a57600080fd5b8951985060208a0151975060408a0151965060608a0151955060808a0151945060a08a0151935060c08a0151925060e08a015164ffffffffff811681146140b057600080fd5b6101008b01519092506140c2816147b6565b809150509295985092959850929598565b600081518084526020808501945080840160005b8381101561410c5781516001600160a01b0316875295820195908201906001016140e7565b509495945050505050565b600081518084526020808501945080840160005b8381101561410c5781518752958201959082019060010161412b565b6000815180845261415f8160208601602086016145f6565b601f01601f19169290920160200192915050565b80516001600160a01b03168252602080820151151590830152604080820151151590830152606080820151908301526080808201519083015260a090810151910152565b600082516141c98184602087016145f6565b9190910192915050565b600060018060a01b03808a16835260e060208401526141f560e084018a6140d3565b8381036040850152614207818a614117565b9050838103606085015261421b8189614117565b9050818716608085015283810360a08501526142378187614147565b9250505061ffff831660c083015298975050505050505050565b60006020808301818452808551808352604092508286019150828160051b87010184880160005b83811015613bc057603f198984030185528151610140815181865261429f82870182614147565b915050888201516142ba8a8701826001600160a01b03169052565b508188015185890152606080830151908601526080808301519086015260a0808301519086015260c0808301519086015260e0808301511515908601526101008083015115159086015261012091820151151591909401529386019390860190600101614278565b60208152600061195d6020830184614147565b6020815281516020820152602082015160408201526040820151606082015260608201516080820152608082015160a082015260a082015160c0820152600060c083015160e080840152611ab4610100840182614117565b60c081016119608284614173565b8481526080602082015260006143b460808301866140d3565b6001600160a01b03949094166040830152506060015292915050565b85815284602082015260a0604082015260006143ef60a08301866140d3565b6001600160a01b0394909416606083015250608001529392505050565b6000610280820190508b82528a60208301528960408301528860608301528760808301528660a08301528560c083015261444960e0830186614173565b6144576101a0830185614173565b6001600160a01b039290921661026091909101529998505050505050505050565b60006001600160401b03821115614491576144916146e6565b5060051b60200190565b600082198211156144ae576144ae6146a4565b500190565b6000826144d057634e487b7160e01b600052601260045260246000fd5b500490565b600181815b808511156145105781600019048211156144f6576144f66146a4565b8085161561450357918102915b93841c93908002906144da565b509250929050565b600061195d838360008261452e57506001611960565b8161453b57506000611960565b8160018114614551576002811461455b57614577565b6001915050611960565b60ff84111561456c5761456c6146a4565b50506001821b611960565b5060208310610133831016604e8410600b841016171561459a575081810a611960565b6145a483836144d5565b80600019048211156145b8576145b86146a4565b029392505050565b60008160001904831182151516156145da576145da6146a4565b500290565b6000828210156145f1576145f16146a4565b500390565b60005b838110156146115781810151838201526020016145f9565b838111156115715750506000910152565b604081018181106001600160401b0382111715614641576146416146e6565b60405250565b601f8201601f191681016001600160401b038111828210171561466c5761466c6146e6565b6040525050565b6000600019821415614687576146876146a4565b5060010190565b634e487b7160e01b600052600160045260246000fd5b634e487b7160e01b600052601160045260246000fd5b634e487b7160e01b600052603160045260246000fd5b634e487b7160e01b600052603260045260246000fd5b634e487b7160e01b600052604160045260246000fd5b600060033d11156147155760046000803e5060005160e01c5b90565b600060443d10156147265790565b6040516003193d81016004833e81513d6001600160401b03816024840111818411171561475557505050505090565b828501915081518181111561476d5750505050505090565b843d87010160208285010111156147875750505050505090565b61479660208286010187614647565b509095945050505050565b6001600160a01b0381168114611eab57600080fd5b8015158114611eab57600080fdfea2646970667358221220c76c791844f884202805c73868914f827e0061812864cc6a05b8752e38a147f764736f6c63430008060033",
  "linkReferences": {},
  "deployedLinkReferences": {}
}